{
	"data": {
		"bytecode": {
			"linkReferences": {},
			"object": "60806040523480156200001157600080fd5b506040518060800160405280605a815260200162003728605a91396200003d81620000b260201b60201c565b50620000623360018060405180602001604052806000815250620000c760201b60201c565b62000087336002600160405180602001604052806000815250620000c760201b60201c565b620000ac336003600160405180602001604052806000815250620000c760201b60201c565b62000ebd565b8060029081620000c39190620007dd565b5050565b600073ffffffffffffffffffffffffffffffffffffffff168473ffffffffffffffffffffffffffffffffffffffff160362000139576040517f08c379a000000000000000000000000000000000000000000000000000000000815260040162000130906200094b565b60405180910390fd5b60006200014b620002ae60201b60201c565b905060006200016085620002b660201b60201c565b905060006200017585620002b660201b60201c565b90506200018e836000898585896200033760201b60201c565b8460008088815260200190815260200160002060008973ffffffffffffffffffffffffffffffffffffffff1673ffffffffffffffffffffffffffffffffffffffff1681526020019081526020016000206000828254620001ef91906200099c565b925050819055508673ffffffffffffffffffffffffffffffffffffffff16600073ffffffffffffffffffffffffffffffffffffffff168473ffffffffffffffffffffffffffffffffffffffff167fc3d58168c5ae7397731d063d5bbf3d657854427343f4c083240f7aacaa2d0f6289896040516200026f929190620009e8565b60405180910390a46200028e836000898585896200033f60201b60201c565b620002a5836000898989896200034760201b60201c565b50505050505050565b600033905090565b60606000600167ffffffffffffffff811115620002d857620002d76200056e565b5b604051908082528060200260200182016040528015620003075781602001602082028036833780820191505090505b509050828160008151811062000322576200032162000a15565b5b60200260200101818152505080915050919050565b505050505050565b505050505050565b620003738473ffffffffffffffffffffffffffffffffffffffff166200054060201b6200073a1760201c565b1562000538578373ffffffffffffffffffffffffffffffffffffffff1663f23a6e6187878686866040518663ffffffff1660e01b8152600401620003bc95949392919062000b23565b6020604051808303816000875af1925050508015620003fb57506040513d601f19601f82011682018060405250810190620003f8919062000bf3565b60015b620004ac576200040a62000c32565b806308c379a0036200046d57506200042162000c8d565b806200042e57506200046f565b806040517f08c379a000000000000000000000000000000000000000000000000000000000815260040162000464919062000d69565b60405180910390fd5b505b6040517f08c379a0000000000000000000000000000000000000000000000000000000008152600401620004a39062000e03565b60405180910390fd5b63f23a6e6160e01b7bffffffffffffffffffffffffffffffffffffffffffffffffffffffff1916817bffffffffffffffffffffffffffffffffffffffffffffffffffffffff19161462000536576040517f08c379a00000000000000000000000000000000000000000000000000000000081526004016200052d9062000e9b565b60405180910390fd5b505b505050505050565b6000808273ffffffffffffffffffffffffffffffffffffffff163b119050919050565b600081519050919050565b7f4e487b7100000000000000000000000000000000000000000000000000000000600052604160045260246000fd5b7f4e487b7100000000000000000000000000000000000000000000000000000000600052602260045260246000fd5b60006002820490506001821680620005e557607f821691505b602082108103620005fb57620005fa6200059d565b5b50919050565b60008190508160005260206000209050919050565b60006020601f8301049050919050565b600082821b905092915050565b600060088302620006657fffffffffffffffffffffffffffffffffffffffffffffffffffffffffffffffff8262000626565b62000671868362000626565b95508019841693508086168417925050509392505050565b6000819050919050565b6000819050919050565b6000620006be620006b8620006b28462000689565b62000693565b62000689565b9050919050565b6000819050919050565b620006da836200069d565b620006f2620006e982620006c5565b84845462000633565b825550505050565b600090565b62000709620006fa565b62000716818484620006cf565b505050565b5b818110156200073e5762000732600082620006ff565b6001810190506200071c565b5050565b601f8211156200078d57620007578162000601565b620007628462000616565b8101602085101562000772578190505b6200078a620007818562000616565b8301826200071b565b50505b505050565b600082821c905092915050565b6000620007b26000198460080262000792565b1980831691505092915050565b6000620007cd83836200079f565b9150826002028217905092915050565b620007e88262000563565b67ffffffffffffffff8111156200080457620008036200056e565b5b620008108254620005cc565b6200081d82828562000742565b600060209050601f83116001811462000855576000841562000840578287015190505b6200084c8582620007bf565b865550620008bc565b601f198416620008658662000601565b60005b828110156200088f5784890151825560018201915060208501945060208101905062000868565b86831015620008af5784890151620008ab601f8916826200079f565b8355505b6001600288020188555050505b505050505050565b600082825260208201905092915050565b7f455243313135353a206d696e7420746f20746865207a65726f2061646472657360008201527f7300000000000000000000000000000000000000000000000000000000000000602082015250565b600062000933602183620008c4565b91506200094082620008d5565b604082019050919050565b60006020820190508181036000830152620009668162000924565b9050919050565b7f4e487b7100000000000000000000000000000000000000000000000000000000600052601160045260246000fd5b6000620009a98262000689565b9150620009b68362000689565b9250828201905080821115620009d157620009d06200096d565b5b92915050565b620009e28162000689565b82525050565b6000604082019050620009ff6000830185620009d7565b62000a0e6020830184620009d7565b9392505050565b7f4e487b7100000000000000000000000000000000000000000000000000000000600052603260045260246000fd5b600073ffffffffffffffffffffffffffffffffffffffff82169050919050565b600062000a718262000a44565b9050919050565b62000a838162000a64565b82525050565b600081519050919050565b600082825260208201905092915050565b60005b8381101562000ac557808201518184015260208101905062000aa8565b60008484015250505050565b6000601f19601f8301169050919050565b600062000aef8262000a89565b62000afb818562000a94565b935062000b0d81856020860162000aa5565b62000b188162000ad1565b840191505092915050565b600060a08201905062000b3a600083018862000a78565b62000b49602083018762000a78565b62000b586040830186620009d7565b62000b676060830185620009d7565b818103608083015262000b7b818462000ae2565b90509695505050505050565b6000604051905090565b600080fd5b60007fffffffff0000000000000000000000000000000000000000000000000000000082169050919050565b62000bcd8162000b96565b811462000bd957600080fd5b50565b60008151905062000bed8162000bc2565b92915050565b60006020828403121562000c0c5762000c0b62000b91565b5b600062000c1c8482850162000bdc565b91505092915050565b60008160e01c9050919050565b600060033d111562000c545760046000803e62000c5160005162000c25565b90505b90565b62000c628262000ad1565b810181811067ffffffffffffffff8211171562000c845762000c836200056e565b5b80604052505050565b600060443d1062000d255762000ca262000b87565b60043d036004823e80513d602482011167ffffffffffffffff8211171562000ccc57505062000d25565b808201805167ffffffffffffffff81111562000cec575050505062000d25565b80602083010160043d03850181111562000d0b57505050505062000d25565b62000d1c8260200185018662000c57565b82955050505050505b90565b600062000d358262000563565b62000d418185620008c4565b935062000d5381856020860162000aa5565b62000d5e8162000ad1565b840191505092915050565b6000602082019050818103600083015262000d85818462000d28565b905092915050565b7f455243313135353a207472616e7366657220746f206e6f6e2d4552433131353560008201527f526563656976657220696d706c656d656e746572000000000000000000000000602082015250565b600062000deb603483620008c4565b915062000df88262000d8d565b604082019050919050565b6000602082019050818103600083015262000e1e8162000ddc565b9050919050565b7f455243313135353a204552433131353552656365697665722072656a6563746560008201527f6420746f6b656e73000000000000000000000000000000000000000000000000602082015250565b600062000e83602883620008c4565b915062000e908262000e25565b604082019050919050565b6000602082019050818103600083015262000eb68162000e74565b9050919050565b61285b8062000ecd6000396000f3fe608060405234801561001057600080fd5b50600436106100a85760003560e01c80634e1273f4116100715780634e1273f414610177578063671747fd146101a757806389479c50146101c5578063a22cb465146101e3578063e985e9c5146101ff578063f242432a1461022f576100a8565b8062fdd58e146100ad57806301ffc9a7146100dd5780630e89341c1461010d5780632eb2c2d61461013d5780633c855b8714610159575b600080fd5b6100c760048036038101906100c291906115f8565b61024b565b6040516100d49190611647565b60405180910390f35b6100f760048036038101906100f291906116ba565b610313565b6040516101049190611702565b60405180910390f35b6101276004803603810190610122919061171d565b6103f5565b60405161013491906117da565b60405180910390f35b610157600480360381019061015291906119f9565b610426565b005b6101616104c7565b60405161016e9190611647565b60405180910390f35b610191600480360381019061018c9190611b8b565b6104cc565b60405161019e9190611cc1565b60405180910390f35b6101af6105e5565b6040516101bc9190611647565b60405180910390f35b6101cd6105ea565b6040516101da9190611647565b60405180910390f35b6101fd60048036038101906101f89190611d0f565b6105ef565b005b61021960048036038101906102149190611d4f565b610605565b6040516102269190611702565b60405180910390f35b61024960048036038101906102449190611d8f565b610699565b005b60008073ffffffffffffffffffffffffffffffffffffffff168373ffffffffffffffffffffffffffffffffffffffff16036102bb576040517f08c379a00000000000000000000000000000000000000000000000000000000081526004016102b290611e98565b60405180910390fd5b60008083815260200190815260200160002060008473ffffffffffffffffffffffffffffffffffffffff1673ffffffffffffffffffffffffffffffffffffffff16815260200190815260200160002054905092915050565b60007fd9b67a26000000000000000000000000000000000000000000000000000000007bffffffffffffffffffffffffffffffffffffffffffffffffffffffff1916827bffffffffffffffffffffffffffffffffffffffffffffffffffffffff191614806103de57507f0e89341c000000000000000000000000000000000000000000000000000000007bffffffffffffffffffffffffffffffffffffffffffffffffffffffff1916827bffffffffffffffffffffffffffffffffffffffffffffffffffffffff1916145b806103ee57506103ed8261075d565b5b9050919050565b6060610400826107c7565b6040516020016104109190611fd8565b6040516020818303038152906040529050919050565b61042e610895565b73ffffffffffffffffffffffffffffffffffffffff168573ffffffffffffffffffffffffffffffffffffffff16148061047457506104738561046e610895565b610605565b5b6104b3576040517f08c379a00000000000000000000000000000000000000000000000000000000081526004016104aa90612077565b60405180910390fd5b6104c0858585858561089d565b5050505050565b600181565b60608151835114610512576040517f08c379a000000000000000000000000000000000000000000000000000000000815260040161050990612109565b60405180910390fd5b6000835167ffffffffffffffff81111561052f5761052e611801565b5b60405190808252806020026020018201604052801561055d5781602001602082028036833780820191505090505b50905060005b84518110156105da576105aa85828151811061058257610581612129565b5b602002602001015185838151811061059d5761059c612129565b5b602002602001015161024b565b8282815181106105bd576105bc612129565b5b602002602001018181525050806105d390612187565b9050610563565b508091505092915050565b600381565b600281565b6106016105fa610895565b8383610bbe565b5050565b6000600160008473ffffffffffffffffffffffffffffffffffffffff1673ffffffffffffffffffffffffffffffffffffffff16815260200190815260200160002060008373ffffffffffffffffffffffffffffffffffffffff1673ffffffffffffffffffffffffffffffffffffffff16815260200190815260200160002060009054906101000a900460ff16905092915050565b6106a1610895565b73ffffffffffffffffffffffffffffffffffffffff168573ffffffffffffffffffffffffffffffffffffffff1614806106e757506106e6856106e1610895565b610605565b5b610726576040517f08c379a000000000000000000000000000000000000000000000000000000000815260040161071d90612077565b60405180910390fd5b6107338585858585610d2a565b5050505050565b6000808273ffffffffffffffffffffffffffffffffffffffff163b119050919050565b60007f01ffc9a7000000000000000000000000000000000000000000000000000000007bffffffffffffffffffffffffffffffffffffffffffffffffffffffff1916827bffffffffffffffffffffffffffffffffffffffffffffffffffffffff1916149050919050565b6060600060016107d684610fc5565b01905060008167ffffffffffffffff8111156107f5576107f4611801565b5b6040519080825280601f01601f1916602001820160405280156108275781602001600182028036833780820191505090505b509050600082602001820190505b60011561088a578080600190039150507f3031323334353637383961626364656600000000000000000000000000000000600a86061a8153600a858161087e5761087d6121cf565b5b04945060008503610835575b819350505050919050565b600033905090565b81518351146108e1576040517f08c379a00000000000000000000000000000000000000000000000000000000081526004016108d890612270565b60405180910390fd5b600073ffffffffffffffffffffffffffffffffffffffff168473ffffffffffffffffffffffffffffffffffffffff1603610950576040517f08c379a000000000000000000000000000000000000000000000000000000000815260040161094790612302565b60405180910390fd5b600061095a610895565b905061096a818787878787611118565b60005b8451811015610b1b57600085828151811061098b5761098a612129565b5b6020026020010151905060008583815181106109aa576109a9612129565b5b60200260200101519050600080600084815260200190815260200160002060008b73ffffffffffffffffffffffffffffffffffffffff1673ffffffffffffffffffffffffffffffffffffffff16815260200190815260200160002054905081811015610a4b576040517f08c379a0000000000000000000000000000000000000000000000000000000008152600401610a4290612394565b60405180910390fd5b81810360008085815260200190815260200160002060008c73ffffffffffffffffffffffffffffffffffffffff1673ffffffffffffffffffffffffffffffffffffffff168152602001908152602001600020819055508160008085815260200190815260200160002060008b73ffffffffffffffffffffffffffffffffffffffff1673ffffffffffffffffffffffffffffffffffffffff1681526020019081526020016000206000828254610b0091906123b4565b9250508190555050505080610b1490612187565b905061096d565b508473ffffffffffffffffffffffffffffffffffffffff168673ffffffffffffffffffffffffffffffffffffffff168273ffffffffffffffffffffffffffffffffffffffff167f4a39dc06d4c0dbc64b70af90fd698a233a518aa5d07e595d983b8c0526c8f7fb8787604051610b929291906123e8565b60405180910390a4610ba8818787878787611120565b610bb6818787878787611128565b505050505050565b8173ffffffffffffffffffffffffffffffffffffffff168373ffffffffffffffffffffffffffffffffffffffff1603610c2c576040517f08c379a0000000000000000000000000000000000000000000000000000000008152600401610c2390612491565b60405180910390fd5b80600160008573ffffffffffffffffffffffffffffffffffffffff1673ffffffffffffffffffffffffffffffffffffffff16815260200190815260200160002060008473ffffffffffffffffffffffffffffffffffffffff1673ffffffffffffffffffffffffffffffffffffffff16815260200190815260200160002060006101000a81548160ff0219169083151502179055508173ffffffffffffffffffffffffffffffffffffffff168373ffffffffffffffffffffffffffffffffffffffff167f17307eab39ab6107e8899845ad3d59bd9653f200f220920489ca2b5937696c3183604051610d1d9190611702565b60405180910390a3505050565b600073ffffffffffffffffffffffffffffffffffffffff168473ffffffffffffffffffffffffffffffffffffffff1603610d99576040517f08c379a0000000000000000000000000000000000000000000000000000000008152600401610d9090612302565b60405180910390fd5b6000610da3610895565b90506000610db0856112ff565b90506000610dbd856112ff565b9050610dcd838989858589611118565b600080600088815260200190815260200160002060008a73ffffffffffffffffffffffffffffffffffffffff1673ffffffffffffffffffffffffffffffffffffffff16815260200190815260200160002054905085811015610e64576040517f08c379a0000000000000000000000000000000000000000000000000000000008152600401610e5b90612394565b60405180910390fd5b85810360008089815260200190815260200160002060008b73ffffffffffffffffffffffffffffffffffffffff1673ffffffffffffffffffffffffffffffffffffffff168152602001908152602001600020819055508560008089815260200190815260200160002060008a73ffffffffffffffffffffffffffffffffffffffff1673ffffffffffffffffffffffffffffffffffffffff1681526020019081526020016000206000828254610f1991906123b4565b925050819055508773ffffffffffffffffffffffffffffffffffffffff168973ffffffffffffffffffffffffffffffffffffffff168573ffffffffffffffffffffffffffffffffffffffff167fc3d58168c5ae7397731d063d5bbf3d657854427343f4c083240f7aacaa2d0f628a8a604051610f969291906124b1565b60405180910390a4610fac848a8a86868a611120565b610fba848a8a8a8a8a611379565b505050505050505050565b600080600090507a184f03e93ff9f4daa797ed6e38ed64bf6a1f0100000000000000008310611023577a184f03e93ff9f4daa797ed6e38ed64bf6a1f0100000000000000008381611019576110186121cf565b5b0492506040810190505b6d04ee2d6d415b85acef81000000008310611060576d04ee2d6d415b85acef81000000008381611056576110556121cf565b5b0492506020810190505b662386f26fc10000831061108f57662386f26fc100008381611085576110846121cf565b5b0492506010810190505b6305f5e10083106110b8576305f5e10083816110ae576110ad6121cf565b5b0492506008810190505b61271083106110dd5761271083816110d3576110d26121cf565b5b0492506004810190505b6064831061110057606483816110f6576110f56121cf565b5b0492506002810190505b600a831061110f576001810190505b80915050919050565b505050505050565b505050505050565b6111478473ffffffffffffffffffffffffffffffffffffffff1661073a565b156112f7578373ffffffffffffffffffffffffffffffffffffffff1663bc197c8187878686866040518663ffffffff1660e01b815260040161118d95949392919061253e565b6020604051808303816000875af19250505080156111c957506040513d601f19601f820116820180604052508101906111c691906125bb565b60015b61126e576111d56125f5565b806308c379a00361123157506111e9612617565b806111f45750611233565b806040517f08c379a000000000000000000000000000000000000000000000000000000000815260040161122891906117da565b60405180910390fd5b505b6040517f08c379a000000000000000000000000000000000000000000000000000000000815260040161126590612719565b60405180910390fd5b63bc197c8160e01b7bffffffffffffffffffffffffffffffffffffffffffffffffffffffff1916817bffffffffffffffffffffffffffffffffffffffffffffffffffffffff1916146112f5576040517f08c379a00000000000000000000000000000000000000000000000000000000081526004016112ec906127ab565b60405180910390fd5b505b505050505050565b60606000600167ffffffffffffffff81111561131e5761131d611801565b5b60405190808252806020026020018201604052801561134c5781602001602082028036833780820191505090505b509050828160008151811061136457611363612129565b5b60200260200101818152505080915050919050565b6113988473ffffffffffffffffffffffffffffffffffffffff1661073a565b15611548578373ffffffffffffffffffffffffffffffffffffffff1663f23a6e6187878686866040518663ffffffff1660e01b81526004016113de9594939291906127cb565b6020604051808303816000875af192505050801561141a57506040513d601f19601f8201168201806040525081019061141791906125bb565b60015b6114bf576114266125f5565b806308c379a003611482575061143a612617565b806114455750611484565b806040517f08c379a000000000000000000000000000000000000000000000000000000000815260040161147991906117da565b60405180910390fd5b505b6040517f08c379a00000000000000000000000000000000000000000000000000000000081526004016114b690612719565b60405180910390fd5b63f23a6e6160e01b7bffffffffffffffffffffffffffffffffffffffffffffffffffffffff1916817bffffffffffffffffffffffffffffffffffffffffffffffffffffffff191614611546576040517f08c379a000000000000000000000000000000000000000000000000000000000815260040161153d906127ab565b60405180910390fd5b505b505050505050565b6000604051905090565b600080fd5b600080fd5b600073ffffffffffffffffffffffffffffffffffffffff82169050919050565b600061158f82611564565b9050919050565b61159f81611584565b81146115aa57600080fd5b50565b6000813590506115bc81611596565b92915050565b6000819050919050565b6115d5816115c2565b81146115e057600080fd5b50565b6000813590506115f2816115cc565b92915050565b6000806040838503121561160f5761160e61155a565b5b600061161d858286016115ad565b925050602061162e858286016115e3565b9150509250929050565b611641816115c2565b82525050565b600060208201905061165c6000830184611638565b92915050565b60007fffffffff0000000000000000000000000000000000000000000000000000000082169050919050565b61169781611662565b81146116a257600080fd5b50565b6000813590506116b48161168e565b92915050565b6000602082840312156116d0576116cf61155a565b5b60006116de848285016116a5565b91505092915050565b60008115159050919050565b6116fc816116e7565b82525050565b600060208201905061171760008301846116f3565b92915050565b6000602082840312156117335761173261155a565b5b6000611741848285016115e3565b91505092915050565b600081519050919050565b600082825260208201905092915050565b60005b83811015611784578082015181840152602081019050611769565b60008484015250505050565b6000601f19601f8301169050919050565b60006117ac8261174a565b6117b68185611755565b93506117c6818560208601611766565b6117cf81611790565b840191505092915050565b600060208201905081810360008301526117f481846117a1565b905092915050565b600080fd5b7f4e487b7100000000000000000000000000000000000000000000000000000000600052604160045260246000fd5b61183982611790565b810181811067ffffffffffffffff8211171561185857611857611801565b5b80604052505050565b600061186b611550565b90506118778282611830565b919050565b600067ffffffffffffffff82111561189757611896611801565b5b602082029050602081019050919050565b600080fd5b60006118c06118bb8461187c565b611861565b905080838252602082019050602084028301858111156118e3576118e26118a8565b5b835b8181101561190c57806118f888826115e3565b8452602084019350506020810190506118e5565b5050509392505050565b600082601f83011261192b5761192a6117fc565b5b813561193b8482602086016118ad565b91505092915050565b600080fd5b600067ffffffffffffffff82111561196457611963611801565b5b61196d82611790565b9050602081019050919050565b82818337600083830152505050565b600061199c61199784611949565b611861565b9050828152602081018484840111156119b8576119b7611944565b5b6119c384828561197a565b509392505050565b600082601f8301126119e0576119df6117fc565b5b81356119f0848260208601611989565b91505092915050565b600080600080600060a08688031215611a1557611a1461155a565b5b6000611a23888289016115ad565b9550506020611a34888289016115ad565b945050604086013567ffffffffffffffff811115611a5557611a5461155f565b5b611a6188828901611916565b935050606086013567ffffffffffffffff811115611a8257611a8161155f565b5b611a8e88828901611916565b925050608086013567ffffffffffffffff811115611aaf57611aae61155f565b5b611abb888289016119cb565b9150509295509295909350565b600067ffffffffffffffff821115611ae357611ae2611801565b5b602082029050602081019050919050565b6000611b07611b0284611ac8565b611861565b90508083825260208201905060208402830185811115611b2a57611b296118a8565b5b835b81811015611b535780611b3f88826115ad565b845260208401935050602081019050611b2c565b5050509392505050565b600082601f830112611b7257611b716117fc565b5b8135611b82848260208601611af4565b91505092915050565b60008060408385031215611ba257611ba161155a565b5b600083013567ffffffffffffffff811115611bc057611bbf61155f565b5b611bcc85828601611b5d565b925050602083013567ffffffffffffffff811115611bed57611bec61155f565b5b611bf985828601611916565b9150509250929050565b600081519050919050565b600082825260208201905092915050565b6000819050602082019050919050565b611c38816115c2565b82525050565b6000611c4a8383611c2f565b60208301905092915050565b6000602082019050919050565b6000611c6e82611c03565b611c788185611c0e565b9350611c8383611c1f565b8060005b83811015611cb4578151611c9b8882611c3e565b9750611ca683611c56565b925050600181019050611c87565b5085935050505092915050565b60006020820190508181036000830152611cdb8184611c63565b905092915050565b611cec816116e7565b8114611cf757600080fd5b50565b600081359050611d0981611ce3565b92915050565b60008060408385031215611d2657611d2561155a565b5b6000611d34858286016115ad565b9250506020611d4585828601611cfa565b9150509250929050565b60008060408385031215611d6657611d6561155a565b5b6000611d74858286016115ad565b9250506020611d85858286016115ad565b9150509250929050565b600080600080600060a08688031215611dab57611daa61155a565b5b6000611db9888289016115ad565b9550506020611dca888289016115ad565b9450506040611ddb888289016115e3565b9350506060611dec888289016115e3565b925050608086013567ffffffffffffffff811115611e0d57611e0c61155f565b5b611e19888289016119cb565b9150509295509295909350565b7f455243313135353a2061646472657373207a65726f206973206e6f742061207660008201527f616c6964206f776e657200000000000000000000000000000000000000000000602082015250565b6000611e82602a83611755565b9150611e8d82611e26565b604082019050919050565b60006020820190508181036000830152611eb181611e75565b9050919050565b600081905092915050565b7f68747470733a2f2f697066732e696f2f697066732f62616679626569686a6a6b60008201527f77647278786a6e757765766c7174716d683369656763616463333273696f347760208201527f6d6f37627632676266333471733334612f000000000000000000000000000000604082015250565b6000611f45605183611eb8565b9150611f5082611ec3565b605182019050919050565b6000611f668261174a565b611f708185611eb8565b9350611f80818560208601611766565b80840191505092915050565b7f2e6a736f6e000000000000000000000000000000000000000000000000000000600082015250565b6000611fc2600583611eb8565b9150611fcd82611f8c565b600582019050919050565b6000611fe382611f38565b9150611fef8284611f5b565b9150611ffa82611fb5565b915081905092915050565b7f455243313135353a2063616c6c6572206973206e6f7420746f6b656e206f776e60008201527f6572206f7220617070726f766564000000000000000000000000000000000000602082015250565b6000612061602e83611755565b915061206c82612005565b604082019050919050565b6000602082019050818103600083015261209081612054565b9050919050565b7f455243313135353a206163636f756e747320616e6420696473206c656e67746860008201527f206d69736d617463680000000000000000000000000000000000000000000000602082015250565b60006120f3602983611755565b91506120fe82612097565b604082019050919050565b60006020820190508181036000830152612122816120e6565b9050919050565b7f4e487b7100000000000000000000000000000000000000000000000000000000600052603260045260246000fd5b7f4e487b7100000000000000000000000000000000000000000000000000000000600052601160045260246000fd5b6000612192826115c2565b91507fffffffffffffffffffffffffffffffffffffffffffffffffffffffffffffffff82036121c4576121c3612158565b5b600182019050919050565b7f4e487b7100000000000000000000000000000000000000000000000000000000600052601260045260246000fd5b7f455243313135353a2069647320616e6420616d6f756e7473206c656e6774682060008201527f6d69736d61746368000000000000000000000000000000000000000000000000602082015250565b600061225a602883611755565b9150612265826121fe565b604082019050919050565b600060208201905081810360008301526122898161224d565b9050919050565b7f455243313135353a207472616e7366657220746f20746865207a65726f20616460008201527f6472657373000000000000000000000000000000000000000000000000000000602082015250565b60006122ec602583611755565b91506122f782612290565b604082019050919050565b6000602082019050818103600083015261231b816122df565b9050919050565b7f455243313135353a20696e73756666696369656e742062616c616e636520666f60008201527f72207472616e7366657200000000000000000000000000000000000000000000602082015250565b600061237e602a83611755565b915061238982612322565b604082019050919050565b600060208201905081810360008301526123ad81612371565b9050919050565b60006123bf826115c2565b91506123ca836115c2565b92508282019050808211156123e2576123e1612158565b5b92915050565b600060408201905081810360008301526124028185611c63565b905081810360208301526124168184611c63565b90509392505050565b7f455243313135353a2073657474696e6720617070726f76616c2073746174757360008201527f20666f722073656c660000000000000000000000000000000000000000000000602082015250565b600061247b602983611755565b91506124868261241f565b604082019050919050565b600060208201905081810360008301526124aa8161246e565b9050919050565b60006040820190506124c66000830185611638565b6124d36020830184611638565b9392505050565b6124e381611584565b82525050565b600081519050919050565b600082825260208201905092915050565b6000612510826124e9565b61251a81856124f4565b935061252a818560208601611766565b61253381611790565b840191505092915050565b600060a08201905061255360008301886124da565b61256060208301876124da565b81810360408301526125728186611c63565b905081810360608301526125868185611c63565b9050818103608083015261259a8184612505565b90509695505050505050565b6000815190506125b58161168e565b92915050565b6000602082840312156125d1576125d061155a565b5b60006125df848285016125a6565b91505092915050565b60008160e01c9050919050565b600060033d11156126145760046000803e6126116000516125e8565b90505b90565b600060443d106126a457612629611550565b60043d036004823e80513d602482011167ffffffffffffffff821117156126515750506126a4565b808201805167ffffffffffffffff81111561266f57505050506126a4565b80602083010160043d03850181111561268c5750505050506126a4565b61269b82602001850186611830565b82955050505050505b90565b7f455243313135353a207472616e7366657220746f206e6f6e2d4552433131353560008201527f526563656976657220696d706c656d656e746572000000000000000000000000602082015250565b6000612703603483611755565b915061270e826126a7565b604082019050919050565b60006020820190508181036000830152612732816126f6565b9050919050565b7f455243313135353a204552433131353552656365697665722072656a6563746560008201527f6420746f6b656e73000000000000000000000000000000000000000000000000602082015250565b6000612795602883611755565b91506127a082612739565b604082019050919050565b600060208201905081810360008301526127c481612788565b9050919050565b600060a0820190506127e060008301886124da565b6127ed60208301876124da565b6127fa6040830186611638565b6128076060830185611638565b81810360808301526128198184612505565b9050969550505050505056fea2646970667358221220f42aa130995b20f06348b897c46e91de6f91028a4842a0f48f986f623fa3a93d64736f6c6343000812003368747470733a2f2f697066732e696f2f697066732f62616679626569686a6a6b77647278786a6e757765766c7174716d683369656763616463333273696f34776d6f37627632676266333471733334612f7b69647d2e6a736f6e",
			"opcodes": "PUSH1 0x80 PUSH1 0x40 MSTORE CALLVALUE DUP1 ISZERO PUSH3 0x11 JUMPI PUSH1 0x0 DUP1 REVERT JUMPDEST POP PUSH1 0x40 MLOAD DUP1 PUSH1 0x80 ADD PUSH1 0x40 MSTORE DUP1 PUSH1 0x5A DUP2 MSTORE PUSH1 0x20 ADD PUSH3 0x3728 PUSH1 0x5A SWAP2 CODECOPY PUSH3 0x3D DUP2 PUSH3 0xB2 PUSH1 0x20 SHL PUSH1 0x20 SHR JUMP JUMPDEST POP PUSH3 0x62 CALLER PUSH1 0x1 DUP1 PUSH1 0x40 MLOAD DUP1 PUSH1 0x20 ADD PUSH1 0x40 MSTORE DUP1 PUSH1 0x0 DUP2 MSTORE POP PUSH3 0xC7 PUSH1 0x20 SHL PUSH1 0x20 SHR JUMP JUMPDEST PUSH3 0x87 CALLER PUSH1 0x2 PUSH1 0x1 PUSH1 0x40 MLOAD DUP1 PUSH1 0x20 ADD PUSH1 0x40 MSTORE DUP1 PUSH1 0x0 DUP2 MSTORE POP PUSH3 0xC7 PUSH1 0x20 SHL PUSH1 0x20 SHR JUMP JUMPDEST PUSH3 0xAC CALLER PUSH1 0x3 PUSH1 0x1 PUSH1 0x40 MLOAD DUP1 PUSH1 0x20 ADD PUSH1 0x40 MSTORE DUP1 PUSH1 0x0 DUP2 MSTORE POP PUSH3 0xC7 PUSH1 0x20 SHL PUSH1 0x20 SHR JUMP JUMPDEST PUSH3 0xEBD JUMP JUMPDEST DUP1 PUSH1 0x2 SWAP1 DUP2 PUSH3 0xC3 SWAP2 SWAP1 PUSH3 0x7DD JUMP JUMPDEST POP POP JUMP JUMPDEST PUSH1 0x0 PUSH20 0xFFFFFFFFFFFFFFFFFFFFFFFFFFFFFFFFFFFFFFFF AND DUP5 PUSH20 0xFFFFFFFFFFFFFFFFFFFFFFFFFFFFFFFFFFFFFFFF AND SUB PUSH3 0x139 JUMPI PUSH1 0x40 MLOAD PUSH32 0x8C379A000000000000000000000000000000000000000000000000000000000 DUP2 MSTORE PUSH1 0x4 ADD PUSH3 0x130 SWAP1 PUSH3 0x94B JUMP JUMPDEST PUSH1 0x40 MLOAD DUP1 SWAP2 SUB SWAP1 REVERT JUMPDEST PUSH1 0x0 PUSH3 0x14B PUSH3 0x2AE PUSH1 0x20 SHL PUSH1 0x20 SHR JUMP JUMPDEST SWAP1 POP PUSH1 0x0 PUSH3 0x160 DUP6 PUSH3 0x2B6 PUSH1 0x20 SHL PUSH1 0x20 SHR JUMP JUMPDEST SWAP1 POP PUSH1 0x0 PUSH3 0x175 DUP6 PUSH3 0x2B6 PUSH1 0x20 SHL PUSH1 0x20 SHR JUMP JUMPDEST SWAP1 POP PUSH3 0x18E DUP4 PUSH1 0x0 DUP10 DUP6 DUP6 DUP10 PUSH3 0x337 PUSH1 0x20 SHL PUSH1 0x20 SHR JUMP JUMPDEST DUP5 PUSH1 0x0 DUP1 DUP9 DUP2 MSTORE PUSH1 0x20 ADD SWAP1 DUP2 MSTORE PUSH1 0x20 ADD PUSH1 0x0 KECCAK256 PUSH1 0x0 DUP10 PUSH20 0xFFFFFFFFFFFFFFFFFFFFFFFFFFFFFFFFFFFFFFFF AND PUSH20 0xFFFFFFFFFFFFFFFFFFFFFFFFFFFFFFFFFFFFFFFF AND DUP2 MSTORE PUSH1 0x20 ADD SWAP1 DUP2 MSTORE PUSH1 0x20 ADD PUSH1 0x0 KECCAK256 PUSH1 0x0 DUP3 DUP3 SLOAD PUSH3 0x1EF SWAP2 SWAP1 PUSH3 0x99C JUMP JUMPDEST SWAP3 POP POP DUP2 SWAP1 SSTORE POP DUP7 PUSH20 0xFFFFFFFFFFFFFFFFFFFFFFFFFFFFFFFFFFFFFFFF AND PUSH1 0x0 PUSH20 0xFFFFFFFFFFFFFFFFFFFFFFFFFFFFFFFFFFFFFFFF AND DUP5 PUSH20 0xFFFFFFFFFFFFFFFFFFFFFFFFFFFFFFFFFFFFFFFF AND PUSH32 0xC3D58168C5AE7397731D063D5BBF3D657854427343F4C083240F7AACAA2D0F62 DUP10 DUP10 PUSH1 0x40 MLOAD PUSH3 0x26F SWAP3 SWAP2 SWAP1 PUSH3 0x9E8 JUMP JUMPDEST PUSH1 0x40 MLOAD DUP1 SWAP2 SUB SWAP1 LOG4 PUSH3 0x28E DUP4 PUSH1 0x0 DUP10 DUP6 DUP6 DUP10 PUSH3 0x33F PUSH1 0x20 SHL PUSH1 0x20 SHR JUMP JUMPDEST PUSH3 0x2A5 DUP4 PUSH1 0x0 DUP10 DUP10 DUP10 DUP10 PUSH3 0x347 PUSH1 0x20 SHL PUSH1 0x20 SHR JUMP JUMPDEST POP POP POP POP POP POP POP JUMP JUMPDEST PUSH1 0x0 CALLER SWAP1 POP SWAP1 JUMP JUMPDEST PUSH1 0x60 PUSH1 0x0 PUSH1 0x1 PUSH8 0xFFFFFFFFFFFFFFFF DUP2 GT ISZERO PUSH3 0x2D8 JUMPI PUSH3 0x2D7 PUSH3 0x56E JUMP JUMPDEST JUMPDEST PUSH1 0x40 MLOAD SWAP1 DUP1 DUP3 MSTORE DUP1 PUSH1 0x20 MUL PUSH1 0x20 ADD DUP3 ADD PUSH1 0x40 MSTORE DUP1 ISZERO PUSH3 0x307 JUMPI DUP2 PUSH1 0x20 ADD PUSH1 0x20 DUP3 MUL DUP1 CALLDATASIZE DUP4 CALLDATACOPY DUP1 DUP3 ADD SWAP2 POP POP SWAP1 POP JUMPDEST POP SWAP1 POP DUP3 DUP2 PUSH1 0x0 DUP2 MLOAD DUP2 LT PUSH3 0x322 JUMPI PUSH3 0x321 PUSH3 0xA15 JUMP JUMPDEST JUMPDEST PUSH1 0x20 MUL PUSH1 0x20 ADD ADD DUP2 DUP2 MSTORE POP POP DUP1 SWAP2 POP POP SWAP2 SWAP1 POP JUMP JUMPDEST POP POP POP POP POP POP JUMP JUMPDEST POP POP POP POP POP POP JUMP JUMPDEST PUSH3 0x373 DUP5 PUSH20 0xFFFFFFFFFFFFFFFFFFFFFFFFFFFFFFFFFFFFFFFF AND PUSH3 0x540 PUSH1 0x20 SHL PUSH3 0x73A OR PUSH1 0x20 SHR JUMP JUMPDEST ISZERO PUSH3 0x538 JUMPI DUP4 PUSH20 0xFFFFFFFFFFFFFFFFFFFFFFFFFFFFFFFFFFFFFFFF AND PUSH4 0xF23A6E61 DUP8 DUP8 DUP7 DUP7 DUP7 PUSH1 0x40 MLOAD DUP7 PUSH4 0xFFFFFFFF AND PUSH1 0xE0 SHL DUP2 MSTORE PUSH1 0x4 ADD PUSH3 0x3BC SWAP6 SWAP5 SWAP4 SWAP3 SWAP2 SWAP1 PUSH3 0xB23 JUMP JUMPDEST PUSH1 0x20 PUSH1 0x40 MLOAD DUP1 DUP4 SUB DUP2 PUSH1 0x0 DUP8 GAS CALL SWAP3 POP POP POP DUP1 ISZERO PUSH3 0x3FB JUMPI POP PUSH1 0x40 MLOAD RETURNDATASIZE PUSH1 0x1F NOT PUSH1 0x1F DUP3 ADD AND DUP3 ADD DUP1 PUSH1 0x40 MSTORE POP DUP2 ADD SWAP1 PUSH3 0x3F8 SWAP2 SWAP1 PUSH3 0xBF3 JUMP JUMPDEST PUSH1 0x1 JUMPDEST PUSH3 0x4AC JUMPI PUSH3 0x40A PUSH3 0xC32 JUMP JUMPDEST DUP1 PUSH4 0x8C379A0 SUB PUSH3 0x46D JUMPI POP PUSH3 0x421 PUSH3 0xC8D JUMP JUMPDEST DUP1 PUSH3 0x42E JUMPI POP PUSH3 0x46F JUMP JUMPDEST DUP1 PUSH1 0x40 MLOAD PUSH32 0x8C379A000000000000000000000000000000000000000000000000000000000 DUP2 MSTORE PUSH1 0x4 ADD PUSH3 0x464 SWAP2 SWAP1 PUSH3 0xD69 JUMP JUMPDEST PUSH1 0x40 MLOAD DUP1 SWAP2 SUB SWAP1 REVERT JUMPDEST POP JUMPDEST PUSH1 0x40 MLOAD PUSH32 0x8C379A000000000000000000000000000000000000000000000000000000000 DUP2 MSTORE PUSH1 0x4 ADD PUSH3 0x4A3 SWAP1 PUSH3 0xE03 JUMP JUMPDEST PUSH1 0x40 MLOAD DUP1 SWAP2 SUB SWAP1 REVERT JUMPDEST PUSH4 0xF23A6E61 PUSH1 0xE0 SHL PUSH28 0xFFFFFFFFFFFFFFFFFFFFFFFFFFFFFFFFFFFFFFFFFFFFFFFFFFFFFFFF NOT AND DUP2 PUSH28 0xFFFFFFFFFFFFFFFFFFFFFFFFFFFFFFFFFFFFFFFFFFFFFFFFFFFFFFFF NOT AND EQ PUSH3 0x536 JUMPI PUSH1 0x40 MLOAD PUSH32 0x8C379A000000000000000000000000000000000000000000000000000000000 DUP2 MSTORE PUSH1 0x4 ADD PUSH3 0x52D SWAP1 PUSH3 0xE9B JUMP JUMPDEST PUSH1 0x40 MLOAD DUP1 SWAP2 SUB SWAP1 REVERT JUMPDEST POP JUMPDEST POP POP POP POP POP POP JUMP JUMPDEST PUSH1 0x0 DUP1 DUP3 PUSH20 0xFFFFFFFFFFFFFFFFFFFFFFFFFFFFFFFFFFFFFFFF AND EXTCODESIZE GT SWAP1 POP SWAP2 SWAP1 POP JUMP JUMPDEST PUSH1 0x0 DUP2 MLOAD SWAP1 POP SWAP2 SWAP1 POP JUMP JUMPDEST PUSH32 0x4E487B7100000000000000000000000000000000000000000000000000000000 PUSH1 0x0 MSTORE PUSH1 0x41 PUSH1 0x4 MSTORE PUSH1 0x24 PUSH1 0x0 REVERT JUMPDEST PUSH32 0x4E487B7100000000000000000000000000000000000000000000000000000000 PUSH1 0x0 MSTORE PUSH1 0x22 PUSH1 0x4 MSTORE PUSH1 0x24 PUSH1 0x0 REVERT JUMPDEST PUSH1 0x0 PUSH1 0x2 DUP3 DIV SWAP1 POP PUSH1 0x1 DUP3 AND DUP1 PUSH3 0x5E5 JUMPI PUSH1 0x7F DUP3 AND SWAP2 POP JUMPDEST PUSH1 0x20 DUP3 LT DUP2 SUB PUSH3 0x5FB JUMPI PUSH3 0x5FA PUSH3 0x59D JUMP JUMPDEST JUMPDEST POP SWAP2 SWAP1 POP JUMP JUMPDEST PUSH1 0x0 DUP2 SWAP1 POP DUP2 PUSH1 0x0 MSTORE PUSH1 0x20 PUSH1 0x0 KECCAK256 SWAP1 POP SWAP2 SWAP1 POP JUMP JUMPDEST PUSH1 0x0 PUSH1 0x20 PUSH1 0x1F DUP4 ADD DIV SWAP1 POP SWAP2 SWAP1 POP JUMP JUMPDEST PUSH1 0x0 DUP3 DUP3 SHL SWAP1 POP SWAP3 SWAP2 POP POP JUMP JUMPDEST PUSH1 0x0 PUSH1 0x8 DUP4 MUL PUSH3 0x665 PUSH32 0xFFFFFFFFFFFFFFFFFFFFFFFFFFFFFFFFFFFFFFFFFFFFFFFFFFFFFFFFFFFFFFFF DUP3 PUSH3 0x626 JUMP JUMPDEST PUSH3 0x671 DUP7 DUP4 PUSH3 0x626 JUMP JUMPDEST SWAP6 POP DUP1 NOT DUP5 AND SWAP4 POP DUP1 DUP7 AND DUP5 OR SWAP3 POP POP POP SWAP4 SWAP3 POP POP POP JUMP JUMPDEST PUSH1 0x0 DUP2 SWAP1 POP SWAP2 SWAP1 POP JUMP JUMPDEST PUSH1 0x0 DUP2 SWAP1 POP SWAP2 SWAP1 POP JUMP JUMPDEST PUSH1 0x0 PUSH3 0x6BE PUSH3 0x6B8 PUSH3 0x6B2 DUP5 PUSH3 0x689 JUMP JUMPDEST PUSH3 0x693 JUMP JUMPDEST PUSH3 0x689 JUMP JUMPDEST SWAP1 POP SWAP2 SWAP1 POP JUMP JUMPDEST PUSH1 0x0 DUP2 SWAP1 POP SWAP2 SWAP1 POP JUMP JUMPDEST PUSH3 0x6DA DUP4 PUSH3 0x69D JUMP JUMPDEST PUSH3 0x6F2 PUSH3 0x6E9 DUP3 PUSH3 0x6C5 JUMP JUMPDEST DUP5 DUP5 SLOAD PUSH3 0x633 JUMP JUMPDEST DUP3 SSTORE POP POP POP POP JUMP JUMPDEST PUSH1 0x0 SWAP1 JUMP JUMPDEST PUSH3 0x709 PUSH3 0x6FA JUMP JUMPDEST PUSH3 0x716 DUP2 DUP5 DUP5 PUSH3 0x6CF JUMP JUMPDEST POP POP POP JUMP JUMPDEST JUMPDEST DUP2 DUP2 LT ISZERO PUSH3 0x73E JUMPI PUSH3 0x732 PUSH1 0x0 DUP3 PUSH3 0x6FF JUMP JUMPDEST PUSH1 0x1 DUP2 ADD SWAP1 POP PUSH3 0x71C JUMP JUMPDEST POP POP JUMP JUMPDEST PUSH1 0x1F DUP3 GT ISZERO PUSH3 0x78D JUMPI PUSH3 0x757 DUP2 PUSH3 0x601 JUMP JUMPDEST PUSH3 0x762 DUP5 PUSH3 0x616 JUMP JUMPDEST DUP2 ADD PUSH1 0x20 DUP6 LT ISZERO PUSH3 0x772 JUMPI DUP2 SWAP1 POP JUMPDEST PUSH3 0x78A PUSH3 0x781 DUP6 PUSH3 0x616 JUMP JUMPDEST DUP4 ADD DUP3 PUSH3 0x71B JUMP JUMPDEST POP POP JUMPDEST POP POP POP JUMP JUMPDEST PUSH1 0x0 DUP3 DUP3 SHR SWAP1 POP SWAP3 SWAP2 POP POP JUMP JUMPDEST PUSH1 0x0 PUSH3 0x7B2 PUSH1 0x0 NOT DUP5 PUSH1 0x8 MUL PUSH3 0x792 JUMP JUMPDEST NOT DUP1 DUP4 AND SWAP2 POP POP SWAP3 SWAP2 POP POP JUMP JUMPDEST PUSH1 0x0 PUSH3 0x7CD DUP4 DUP4 PUSH3 0x79F JUMP JUMPDEST SWAP2 POP DUP3 PUSH1 0x2 MUL DUP3 OR SWAP1 POP SWAP3 SWAP2 POP POP JUMP JUMPDEST PUSH3 0x7E8 DUP3 PUSH3 0x563 JUMP JUMPDEST PUSH8 0xFFFFFFFFFFFFFFFF DUP2 GT ISZERO PUSH3 0x804 JUMPI PUSH3 0x803 PUSH3 0x56E JUMP JUMPDEST JUMPDEST PUSH3 0x810 DUP3 SLOAD PUSH3 0x5CC JUMP JUMPDEST PUSH3 0x81D DUP3 DUP3 DUP6 PUSH3 0x742 JUMP JUMPDEST PUSH1 0x0 PUSH1 0x20 SWAP1 POP PUSH1 0x1F DUP4 GT PUSH1 0x1 DUP2 EQ PUSH3 0x855 JUMPI PUSH1 0x0 DUP5 ISZERO PUSH3 0x840 JUMPI DUP3 DUP8 ADD MLOAD SWAP1 POP JUMPDEST PUSH3 0x84C DUP6 DUP3 PUSH3 0x7BF JUMP JUMPDEST DUP7 SSTORE POP PUSH3 0x8BC JUMP JUMPDEST PUSH1 0x1F NOT DUP5 AND PUSH3 0x865 DUP7 PUSH3 0x601 JUMP JUMPDEST PUSH1 0x0 JUMPDEST DUP3 DUP2 LT ISZERO PUSH3 0x88F JUMPI DUP5 DUP10 ADD MLOAD DUP3 SSTORE PUSH1 0x1 DUP3 ADD SWAP2 POP PUSH1 0x20 DUP6 ADD SWAP5 POP PUSH1 0x20 DUP2 ADD SWAP1 POP PUSH3 0x868 JUMP JUMPDEST DUP7 DUP4 LT ISZERO PUSH3 0x8AF JUMPI DUP5 DUP10 ADD MLOAD PUSH3 0x8AB PUSH1 0x1F DUP10 AND DUP3 PUSH3 0x79F JUMP JUMPDEST DUP4 SSTORE POP JUMPDEST PUSH1 0x1 PUSH1 0x2 DUP9 MUL ADD DUP9 SSTORE POP POP POP JUMPDEST POP POP POP POP POP POP JUMP JUMPDEST PUSH1 0x0 DUP3 DUP3 MSTORE PUSH1 0x20 DUP3 ADD SWAP1 POP SWAP3 SWAP2 POP POP JUMP JUMPDEST PUSH32 0x455243313135353A206D696E7420746F20746865207A65726F20616464726573 PUSH1 0x0 DUP3 ADD MSTORE PUSH32 0x7300000000000000000000000000000000000000000000000000000000000000 PUSH1 0x20 DUP3 ADD MSTORE POP JUMP JUMPDEST PUSH1 0x0 PUSH3 0x933 PUSH1 0x21 DUP4 PUSH3 0x8C4 JUMP JUMPDEST SWAP2 POP PUSH3 0x940 DUP3 PUSH3 0x8D5 JUMP JUMPDEST PUSH1 0x40 DUP3 ADD SWAP1 POP SWAP2 SWAP1 POP JUMP JUMPDEST PUSH1 0x0 PUSH1 0x20 DUP3 ADD SWAP1 POP DUP2 DUP2 SUB PUSH1 0x0 DUP4 ADD MSTORE PUSH3 0x966 DUP2 PUSH3 0x924 JUMP JUMPDEST SWAP1 POP SWAP2 SWAP1 POP JUMP JUMPDEST PUSH32 0x4E487B7100000000000000000000000000000000000000000000000000000000 PUSH1 0x0 MSTORE PUSH1 0x11 PUSH1 0x4 MSTORE PUSH1 0x24 PUSH1 0x0 REVERT JUMPDEST PUSH1 0x0 PUSH3 0x9A9 DUP3 PUSH3 0x689 JUMP JUMPDEST SWAP2 POP PUSH3 0x9B6 DUP4 PUSH3 0x689 JUMP JUMPDEST SWAP3 POP DUP3 DUP3 ADD SWAP1 POP DUP1 DUP3 GT ISZERO PUSH3 0x9D1 JUMPI PUSH3 0x9D0 PUSH3 0x96D JUMP JUMPDEST JUMPDEST SWAP3 SWAP2 POP POP JUMP JUMPDEST PUSH3 0x9E2 DUP2 PUSH3 0x689 JUMP JUMPDEST DUP3 MSTORE POP POP JUMP JUMPDEST PUSH1 0x0 PUSH1 0x40 DUP3 ADD SWAP1 POP PUSH3 0x9FF PUSH1 0x0 DUP4 ADD DUP6 PUSH3 0x9D7 JUMP JUMPDEST PUSH3 0xA0E PUSH1 0x20 DUP4 ADD DUP5 PUSH3 0x9D7 JUMP JUMPDEST SWAP4 SWAP3 POP POP POP JUMP JUMPDEST PUSH32 0x4E487B7100000000000000000000000000000000000000000000000000000000 PUSH1 0x0 MSTORE PUSH1 0x32 PUSH1 0x4 MSTORE PUSH1 0x24 PUSH1 0x0 REVERT JUMPDEST PUSH1 0x0 PUSH20 0xFFFFFFFFFFFFFFFFFFFFFFFFFFFFFFFFFFFFFFFF DUP3 AND SWAP1 POP SWAP2 SWAP1 POP JUMP JUMPDEST PUSH1 0x0 PUSH3 0xA71 DUP3 PUSH3 0xA44 JUMP JUMPDEST SWAP1 POP SWAP2 SWAP1 POP JUMP JUMPDEST PUSH3 0xA83 DUP2 PUSH3 0xA64 JUMP JUMPDEST DUP3 MSTORE POP POP JUMP JUMPDEST PUSH1 0x0 DUP2 MLOAD SWAP1 POP SWAP2 SWAP1 POP JUMP JUMPDEST PUSH1 0x0 DUP3 DUP3 MSTORE PUSH1 0x20 DUP3 ADD SWAP1 POP SWAP3 SWAP2 POP POP JUMP JUMPDEST PUSH1 0x0 JUMPDEST DUP4 DUP2 LT ISZERO PUSH3 0xAC5 JUMPI DUP1 DUP3 ADD MLOAD DUP2 DUP5 ADD MSTORE PUSH1 0x20 DUP2 ADD SWAP1 POP PUSH3 0xAA8 JUMP JUMPDEST PUSH1 0x0 DUP5 DUP5 ADD MSTORE POP POP POP POP JUMP JUMPDEST PUSH1 0x0 PUSH1 0x1F NOT PUSH1 0x1F DUP4 ADD AND SWAP1 POP SWAP2 SWAP1 POP JUMP JUMPDEST PUSH1 0x0 PUSH3 0xAEF DUP3 PUSH3 0xA89 JUMP JUMPDEST PUSH3 0xAFB DUP2 DUP6 PUSH3 0xA94 JUMP JUMPDEST SWAP4 POP PUSH3 0xB0D DUP2 DUP6 PUSH1 0x20 DUP7 ADD PUSH3 0xAA5 JUMP JUMPDEST PUSH3 0xB18 DUP2 PUSH3 0xAD1 JUMP JUMPDEST DUP5 ADD SWAP2 POP POP SWAP3 SWAP2 POP POP JUMP JUMPDEST PUSH1 0x0 PUSH1 0xA0 DUP3 ADD SWAP1 POP PUSH3 0xB3A PUSH1 0x0 DUP4 ADD DUP9 PUSH3 0xA78 JUMP JUMPDEST PUSH3 0xB49 PUSH1 0x20 DUP4 ADD DUP8 PUSH3 0xA78 JUMP JUMPDEST PUSH3 0xB58 PUSH1 0x40 DUP4 ADD DUP7 PUSH3 0x9D7 JUMP JUMPDEST PUSH3 0xB67 PUSH1 0x60 DUP4 ADD DUP6 PUSH3 0x9D7 JUMP JUMPDEST DUP2 DUP2 SUB PUSH1 0x80 DUP4 ADD MSTORE PUSH3 0xB7B DUP2 DUP5 PUSH3 0xAE2 JUMP JUMPDEST SWAP1 POP SWAP7 SWAP6 POP POP POP POP POP POP JUMP JUMPDEST PUSH1 0x0 PUSH1 0x40 MLOAD SWAP1 POP SWAP1 JUMP JUMPDEST PUSH1 0x0 DUP1 REVERT JUMPDEST PUSH1 0x0 PUSH32 0xFFFFFFFF00000000000000000000000000000000000000000000000000000000 DUP3 AND SWAP1 POP SWAP2 SWAP1 POP JUMP JUMPDEST PUSH3 0xBCD DUP2 PUSH3 0xB96 JUMP JUMPDEST DUP2 EQ PUSH3 0xBD9 JUMPI PUSH1 0x0 DUP1 REVERT JUMPDEST POP JUMP JUMPDEST PUSH1 0x0 DUP2 MLOAD SWAP1 POP PUSH3 0xBED DUP2 PUSH3 0xBC2 JUMP JUMPDEST SWAP3 SWAP2 POP POP JUMP JUMPDEST PUSH1 0x0 PUSH1 0x20 DUP3 DUP5 SUB SLT ISZERO PUSH3 0xC0C JUMPI PUSH3 0xC0B PUSH3 0xB91 JUMP JUMPDEST JUMPDEST PUSH1 0x0 PUSH3 0xC1C DUP5 DUP3 DUP6 ADD PUSH3 0xBDC JUMP JUMPDEST SWAP2 POP POP SWAP3 SWAP2 POP POP JUMP JUMPDEST PUSH1 0x0 DUP2 PUSH1 0xE0 SHR SWAP1 POP SWAP2 SWAP1 POP JUMP JUMPDEST PUSH1 0x0 PUSH1 0x3 RETURNDATASIZE GT ISZERO PUSH3 0xC54 JUMPI PUSH1 0x4 PUSH1 0x0 DUP1 RETURNDATACOPY PUSH3 0xC51 PUSH1 0x0 MLOAD PUSH3 0xC25 JUMP JUMPDEST SWAP1 POP JUMPDEST SWAP1 JUMP JUMPDEST PUSH3 0xC62 DUP3 PUSH3 0xAD1 JUMP JUMPDEST DUP2 ADD DUP2 DUP2 LT PUSH8 0xFFFFFFFFFFFFFFFF DUP3 GT OR ISZERO PUSH3 0xC84 JUMPI PUSH3 0xC83 PUSH3 0x56E JUMP JUMPDEST JUMPDEST DUP1 PUSH1 0x40 MSTORE POP POP POP JUMP JUMPDEST PUSH1 0x0 PUSH1 0x44 RETURNDATASIZE LT PUSH3 0xD25 JUMPI PUSH3 0xCA2 PUSH3 0xB87 JUMP JUMPDEST PUSH1 0x4 RETURNDATASIZE SUB PUSH1 0x4 DUP3 RETURNDATACOPY DUP1 MLOAD RETURNDATASIZE PUSH1 0x24 DUP3 ADD GT PUSH8 0xFFFFFFFFFFFFFFFF DUP3 GT OR ISZERO PUSH3 0xCCC JUMPI POP POP PUSH3 0xD25 JUMP JUMPDEST DUP1 DUP3 ADD DUP1 MLOAD PUSH8 0xFFFFFFFFFFFFFFFF DUP2 GT ISZERO PUSH3 0xCEC JUMPI POP POP POP POP PUSH3 0xD25 JUMP JUMPDEST DUP1 PUSH1 0x20 DUP4 ADD ADD PUSH1 0x4 RETURNDATASIZE SUB DUP6 ADD DUP2 GT ISZERO PUSH3 0xD0B JUMPI POP POP POP POP POP PUSH3 0xD25 JUMP JUMPDEST PUSH3 0xD1C DUP3 PUSH1 0x20 ADD DUP6 ADD DUP7 PUSH3 0xC57 JUMP JUMPDEST DUP3 SWAP6 POP POP POP POP POP POP JUMPDEST SWAP1 JUMP JUMPDEST PUSH1 0x0 PUSH3 0xD35 DUP3 PUSH3 0x563 JUMP JUMPDEST PUSH3 0xD41 DUP2 DUP6 PUSH3 0x8C4 JUMP JUMPDEST SWAP4 POP PUSH3 0xD53 DUP2 DUP6 PUSH1 0x20 DUP7 ADD PUSH3 0xAA5 JUMP JUMPDEST PUSH3 0xD5E DUP2 PUSH3 0xAD1 JUMP JUMPDEST DUP5 ADD SWAP2 POP POP SWAP3 SWAP2 POP POP JUMP JUMPDEST PUSH1 0x0 PUSH1 0x20 DUP3 ADD SWAP1 POP DUP2 DUP2 SUB PUSH1 0x0 DUP4 ADD MSTORE PUSH3 0xD85 DUP2 DUP5 PUSH3 0xD28 JUMP JUMPDEST SWAP1 POP SWAP3 SWAP2 POP POP JUMP JUMPDEST PUSH32 0x455243313135353A207472616E7366657220746F206E6F6E2D45524331313535 PUSH1 0x0 DUP3 ADD MSTORE PUSH32 0x526563656976657220696D706C656D656E746572000000000000000000000000 PUSH1 0x20 DUP3 ADD MSTORE POP JUMP JUMPDEST PUSH1 0x0 PUSH3 0xDEB PUSH1 0x34 DUP4 PUSH3 0x8C4 JUMP JUMPDEST SWAP2 POP PUSH3 0xDF8 DUP3 PUSH3 0xD8D JUMP JUMPDEST PUSH1 0x40 DUP3 ADD SWAP1 POP SWAP2 SWAP1 POP JUMP JUMPDEST PUSH1 0x0 PUSH1 0x20 DUP3 ADD SWAP1 POP DUP2 DUP2 SUB PUSH1 0x0 DUP4 ADD MSTORE PUSH3 0xE1E DUP2 PUSH3 0xDDC JUMP JUMPDEST SWAP1 POP SWAP2 SWAP1 POP JUMP JUMPDEST PUSH32 0x455243313135353A204552433131353552656365697665722072656A65637465 PUSH1 0x0 DUP3 ADD MSTORE PUSH32 0x6420746F6B656E73000000000000000000000000000000000000000000000000 PUSH1 0x20 DUP3 ADD MSTORE POP JUMP JUMPDEST PUSH1 0x0 PUSH3 0xE83 PUSH1 0x28 DUP4 PUSH3 0x8C4 JUMP JUMPDEST SWAP2 POP PUSH3 0xE90 DUP3 PUSH3 0xE25 JUMP JUMPDEST PUSH1 0x40 DUP3 ADD SWAP1 POP SWAP2 SWAP1 POP JUMP JUMPDEST PUSH1 0x0 PUSH1 0x20 DUP3 ADD SWAP1 POP DUP2 DUP2 SUB PUSH1 0x0 DUP4 ADD MSTORE PUSH3 0xEB6 DUP2 PUSH3 0xE74 JUMP JUMPDEST SWAP1 POP SWAP2 SWAP1 POP JUMP JUMPDEST PUSH2 0x285B DUP1 PUSH3 0xECD PUSH1 0x0 CODECOPY PUSH1 0x0 RETURN INVALID PUSH1 0x80 PUSH1 0x40 MSTORE CALLVALUE DUP1 ISZERO PUSH2 0x10 JUMPI PUSH1 0x0 DUP1 REVERT JUMPDEST POP PUSH1 0x4 CALLDATASIZE LT PUSH2 0xA8 JUMPI PUSH1 0x0 CALLDATALOAD PUSH1 0xE0 SHR DUP1 PUSH4 0x4E1273F4 GT PUSH2 0x71 JUMPI DUP1 PUSH4 0x4E1273F4 EQ PUSH2 0x177 JUMPI DUP1 PUSH4 0x671747FD EQ PUSH2 0x1A7 JUMPI DUP1 PUSH4 0x89479C50 EQ PUSH2 0x1C5 JUMPI DUP1 PUSH4 0xA22CB465 EQ PUSH2 0x1E3 JUMPI DUP1 PUSH4 0xE985E9C5 EQ PUSH2 0x1FF JUMPI DUP1 PUSH4 0xF242432A EQ PUSH2 0x22F JUMPI PUSH2 0xA8 JUMP JUMPDEST DUP1 PUSH3 0xFDD58E EQ PUSH2 0xAD JUMPI DUP1 PUSH4 0x1FFC9A7 EQ PUSH2 0xDD JUMPI DUP1 PUSH4 0xE89341C EQ PUSH2 0x10D JUMPI DUP1 PUSH4 0x2EB2C2D6 EQ PUSH2 0x13D JUMPI DUP1 PUSH4 0x3C855B87 EQ PUSH2 0x159 JUMPI JUMPDEST PUSH1 0x0 DUP1 REVERT JUMPDEST PUSH2 0xC7 PUSH1 0x4 DUP1 CALLDATASIZE SUB DUP2 ADD SWAP1 PUSH2 0xC2 SWAP2 SWAP1 PUSH2 0x15F8 JUMP JUMPDEST PUSH2 0x24B JUMP JUMPDEST PUSH1 0x40 MLOAD PUSH2 0xD4 SWAP2 SWAP1 PUSH2 0x1647 JUMP JUMPDEST PUSH1 0x40 MLOAD DUP1 SWAP2 SUB SWAP1 RETURN JUMPDEST PUSH2 0xF7 PUSH1 0x4 DUP1 CALLDATASIZE SUB DUP2 ADD SWAP1 PUSH2 0xF2 SWAP2 SWAP1 PUSH2 0x16BA JUMP JUMPDEST PUSH2 0x313 JUMP JUMPDEST PUSH1 0x40 MLOAD PUSH2 0x104 SWAP2 SWAP1 PUSH2 0x1702 JUMP JUMPDEST PUSH1 0x40 MLOAD DUP1 SWAP2 SUB SWAP1 RETURN JUMPDEST PUSH2 0x127 PUSH1 0x4 DUP1 CALLDATASIZE SUB DUP2 ADD SWAP1 PUSH2 0x122 SWAP2 SWAP1 PUSH2 0x171D JUMP JUMPDEST PUSH2 0x3F5 JUMP JUMPDEST PUSH1 0x40 MLOAD PUSH2 0x134 SWAP2 SWAP1 PUSH2 0x17DA JUMP JUMPDEST PUSH1 0x40 MLOAD DUP1 SWAP2 SUB SWAP1 RETURN JUMPDEST PUSH2 0x157 PUSH1 0x4 DUP1 CALLDATASIZE SUB DUP2 ADD SWAP1 PUSH2 0x152 SWAP2 SWAP1 PUSH2 0x19F9 JUMP JUMPDEST PUSH2 0x426 JUMP JUMPDEST STOP JUMPDEST PUSH2 0x161 PUSH2 0x4C7 JUMP JUMPDEST PUSH1 0x40 MLOAD PUSH2 0x16E SWAP2 SWAP1 PUSH2 0x1647 JUMP JUMPDEST PUSH1 0x40 MLOAD DUP1 SWAP2 SUB SWAP1 RETURN JUMPDEST PUSH2 0x191 PUSH1 0x4 DUP1 CALLDATASIZE SUB DUP2 ADD SWAP1 PUSH2 0x18C SWAP2 SWAP1 PUSH2 0x1B8B JUMP JUMPDEST PUSH2 0x4CC JUMP JUMPDEST PUSH1 0x40 MLOAD PUSH2 0x19E SWAP2 SWAP1 PUSH2 0x1CC1 JUMP JUMPDEST PUSH1 0x40 MLOAD DUP1 SWAP2 SUB SWAP1 RETURN JUMPDEST PUSH2 0x1AF PUSH2 0x5E5 JUMP JUMPDEST PUSH1 0x40 MLOAD PUSH2 0x1BC SWAP2 SWAP1 PUSH2 0x1647 JUMP JUMPDEST PUSH1 0x40 MLOAD DUP1 SWAP2 SUB SWAP1 RETURN JUMPDEST PUSH2 0x1CD PUSH2 0x5EA JUMP JUMPDEST PUSH1 0x40 MLOAD PUSH2 0x1DA SWAP2 SWAP1 PUSH2 0x1647 JUMP JUMPDEST PUSH1 0x40 MLOAD DUP1 SWAP2 SUB SWAP1 RETURN JUMPDEST PUSH2 0x1FD PUSH1 0x4 DUP1 CALLDATASIZE SUB DUP2 ADD SWAP1 PUSH2 0x1F8 SWAP2 SWAP1 PUSH2 0x1D0F JUMP JUMPDEST PUSH2 0x5EF JUMP JUMPDEST STOP JUMPDEST PUSH2 0x219 PUSH1 0x4 DUP1 CALLDATASIZE SUB DUP2 ADD SWAP1 PUSH2 0x214 SWAP2 SWAP1 PUSH2 0x1D4F JUMP JUMPDEST PUSH2 0x605 JUMP JUMPDEST PUSH1 0x40 MLOAD PUSH2 0x226 SWAP2 SWAP1 PUSH2 0x1702 JUMP JUMPDEST PUSH1 0x40 MLOAD DUP1 SWAP2 SUB SWAP1 RETURN JUMPDEST PUSH2 0x249 PUSH1 0x4 DUP1 CALLDATASIZE SUB DUP2 ADD SWAP1 PUSH2 0x244 SWAP2 SWAP1 PUSH2 0x1D8F JUMP JUMPDEST PUSH2 0x699 JUMP JUMPDEST STOP JUMPDEST PUSH1 0x0 DUP1 PUSH20 0xFFFFFFFFFFFFFFFFFFFFFFFFFFFFFFFFFFFFFFFF AND DUP4 PUSH20 0xFFFFFFFFFFFFFFFFFFFFFFFFFFFFFFFFFFFFFFFF AND SUB PUSH2 0x2BB JUMPI PUSH1 0x40 MLOAD PUSH32 0x8C379A000000000000000000000000000000000000000000000000000000000 DUP2 MSTORE PUSH1 0x4 ADD PUSH2 0x2B2 SWAP1 PUSH2 0x1E98 JUMP JUMPDEST PUSH1 0x40 MLOAD DUP1 SWAP2 SUB SWAP1 REVERT JUMPDEST PUSH1 0x0 DUP1 DUP4 DUP2 MSTORE PUSH1 0x20 ADD SWAP1 DUP2 MSTORE PUSH1 0x20 ADD PUSH1 0x0 KECCAK256 PUSH1 0x0 DUP5 PUSH20 0xFFFFFFFFFFFFFFFFFFFFFFFFFFFFFFFFFFFFFFFF AND PUSH20 0xFFFFFFFFFFFFFFFFFFFFFFFFFFFFFFFFFFFFFFFF AND DUP2 MSTORE PUSH1 0x20 ADD SWAP1 DUP2 MSTORE PUSH1 0x20 ADD PUSH1 0x0 KECCAK256 SLOAD SWAP1 POP SWAP3 SWAP2 POP POP JUMP JUMPDEST PUSH1 0x0 PUSH32 0xD9B67A2600000000000000000000000000000000000000000000000000000000 PUSH28 0xFFFFFFFFFFFFFFFFFFFFFFFFFFFFFFFFFFFFFFFFFFFFFFFFFFFFFFFF NOT AND DUP3 PUSH28 0xFFFFFFFFFFFFFFFFFFFFFFFFFFFFFFFFFFFFFFFFFFFFFFFFFFFFFFFF NOT AND EQ DUP1 PUSH2 0x3DE JUMPI POP PUSH32 0xE89341C00000000000000000000000000000000000000000000000000000000 PUSH28 0xFFFFFFFFFFFFFFFFFFFFFFFFFFFFFFFFFFFFFFFFFFFFFFFFFFFFFFFF NOT AND DUP3 PUSH28 0xFFFFFFFFFFFFFFFFFFFFFFFFFFFFFFFFFFFFFFFFFFFFFFFFFFFFFFFF NOT AND EQ JUMPDEST DUP1 PUSH2 0x3EE JUMPI POP PUSH2 0x3ED DUP3 PUSH2 0x75D JUMP JUMPDEST JUMPDEST SWAP1 POP SWAP2 SWAP1 POP JUMP JUMPDEST PUSH1 0x60 PUSH2 0x400 DUP3 PUSH2 0x7C7 JUMP JUMPDEST PUSH1 0x40 MLOAD PUSH1 0x20 ADD PUSH2 0x410 SWAP2 SWAP1 PUSH2 0x1FD8 JUMP JUMPDEST PUSH1 0x40 MLOAD PUSH1 0x20 DUP2 DUP4 SUB SUB DUP2 MSTORE SWAP1 PUSH1 0x40 MSTORE SWAP1 POP SWAP2 SWAP1 POP JUMP JUMPDEST PUSH2 0x42E PUSH2 0x895 JUMP JUMPDEST PUSH20 0xFFFFFFFFFFFFFFFFFFFFFFFFFFFFFFFFFFFFFFFF AND DUP6 PUSH20 0xFFFFFFFFFFFFFFFFFFFFFFFFFFFFFFFFFFFFFFFF AND EQ DUP1 PUSH2 0x474 JUMPI POP PUSH2 0x473 DUP6 PUSH2 0x46E PUSH2 0x895 JUMP JUMPDEST PUSH2 0x605 JUMP JUMPDEST JUMPDEST PUSH2 0x4B3 JUMPI PUSH1 0x40 MLOAD PUSH32 0x8C379A000000000000000000000000000000000000000000000000000000000 DUP2 MSTORE PUSH1 0x4 ADD PUSH2 0x4AA SWAP1 PUSH2 0x2077 JUMP JUMPDEST PUSH1 0x40 MLOAD DUP1 SWAP2 SUB SWAP1 REVERT JUMPDEST PUSH2 0x4C0 DUP6 DUP6 DUP6 DUP6 DUP6 PUSH2 0x89D JUMP JUMPDEST POP POP POP POP POP JUMP JUMPDEST PUSH1 0x1 DUP2 JUMP JUMPDEST PUSH1 0x60 DUP2 MLOAD DUP4 MLOAD EQ PUSH2 0x512 JUMPI PUSH1 0x40 MLOAD PUSH32 0x8C379A000000000000000000000000000000000000000000000000000000000 DUP2 MSTORE PUSH1 0x4 ADD PUSH2 0x509 SWAP1 PUSH2 0x2109 JUMP JUMPDEST PUSH1 0x40 MLOAD DUP1 SWAP2 SUB SWAP1 REVERT JUMPDEST PUSH1 0x0 DUP4 MLOAD PUSH8 0xFFFFFFFFFFFFFFFF DUP2 GT ISZERO PUSH2 0x52F JUMPI PUSH2 0x52E PUSH2 0x1801 JUMP JUMPDEST JUMPDEST PUSH1 0x40 MLOAD SWAP1 DUP1 DUP3 MSTORE DUP1 PUSH1 0x20 MUL PUSH1 0x20 ADD DUP3 ADD PUSH1 0x40 MSTORE DUP1 ISZERO PUSH2 0x55D JUMPI DUP2 PUSH1 0x20 ADD PUSH1 0x20 DUP3 MUL DUP1 CALLDATASIZE DUP4 CALLDATACOPY DUP1 DUP3 ADD SWAP2 POP POP SWAP1 POP JUMPDEST POP SWAP1 POP PUSH1 0x0 JUMPDEST DUP5 MLOAD DUP2 LT ISZERO PUSH2 0x5DA JUMPI PUSH2 0x5AA DUP6 DUP3 DUP2 MLOAD DUP2 LT PUSH2 0x582 JUMPI PUSH2 0x581 PUSH2 0x2129 JUMP JUMPDEST JUMPDEST PUSH1 0x20 MUL PUSH1 0x20 ADD ADD MLOAD DUP6 DUP4 DUP2 MLOAD DUP2 LT PUSH2 0x59D JUMPI PUSH2 0x59C PUSH2 0x2129 JUMP JUMPDEST JUMPDEST PUSH1 0x20 MUL PUSH1 0x20 ADD ADD MLOAD PUSH2 0x24B JUMP JUMPDEST DUP3 DUP3 DUP2 MLOAD DUP2 LT PUSH2 0x5BD JUMPI PUSH2 0x5BC PUSH2 0x2129 JUMP JUMPDEST JUMPDEST PUSH1 0x20 MUL PUSH1 0x20 ADD ADD DUP2 DUP2 MSTORE POP POP DUP1 PUSH2 0x5D3 SWAP1 PUSH2 0x2187 JUMP JUMPDEST SWAP1 POP PUSH2 0x563 JUMP JUMPDEST POP DUP1 SWAP2 POP POP SWAP3 SWAP2 POP POP JUMP JUMPDEST PUSH1 0x3 DUP2 JUMP JUMPDEST PUSH1 0x2 DUP2 JUMP JUMPDEST PUSH2 0x601 PUSH2 0x5FA PUSH2 0x895 JUMP JUMPDEST DUP4 DUP4 PUSH2 0xBBE JUMP JUMPDEST POP POP JUMP JUMPDEST PUSH1 0x0 PUSH1 0x1 PUSH1 0x0 DUP5 PUSH20 0xFFFFFFFFFFFFFFFFFFFFFFFFFFFFFFFFFFFFFFFF AND PUSH20 0xFFFFFFFFFFFFFFFFFFFFFFFFFFFFFFFFFFFFFFFF AND DUP2 MSTORE PUSH1 0x20 ADD SWAP1 DUP2 MSTORE PUSH1 0x20 ADD PUSH1 0x0 KECCAK256 PUSH1 0x0 DUP4 PUSH20 0xFFFFFFFFFFFFFFFFFFFFFFFFFFFFFFFFFFFFFFFF AND PUSH20 0xFFFFFFFFFFFFFFFFFFFFFFFFFFFFFFFFFFFFFFFF AND DUP2 MSTORE PUSH1 0x20 ADD SWAP1 DUP2 MSTORE PUSH1 0x20 ADD PUSH1 0x0 KECCAK256 PUSH1 0x0 SWAP1 SLOAD SWAP1 PUSH2 0x100 EXP SWAP1 DIV PUSH1 0xFF AND SWAP1 POP SWAP3 SWAP2 POP POP JUMP JUMPDEST PUSH2 0x6A1 PUSH2 0x895 JUMP JUMPDEST PUSH20 0xFFFFFFFFFFFFFFFFFFFFFFFFFFFFFFFFFFFFFFFF AND DUP6 PUSH20 0xFFFFFFFFFFFFFFFFFFFFFFFFFFFFFFFFFFFFFFFF AND EQ DUP1 PUSH2 0x6E7 JUMPI POP PUSH2 0x6E6 DUP6 PUSH2 0x6E1 PUSH2 0x895 JUMP JUMPDEST PUSH2 0x605 JUMP JUMPDEST JUMPDEST PUSH2 0x726 JUMPI PUSH1 0x40 MLOAD PUSH32 0x8C379A000000000000000000000000000000000000000000000000000000000 DUP2 MSTORE PUSH1 0x4 ADD PUSH2 0x71D SWAP1 PUSH2 0x2077 JUMP JUMPDEST PUSH1 0x40 MLOAD DUP1 SWAP2 SUB SWAP1 REVERT JUMPDEST PUSH2 0x733 DUP6 DUP6 DUP6 DUP6 DUP6 PUSH2 0xD2A JUMP JUMPDEST POP POP POP POP POP JUMP JUMPDEST PUSH1 0x0 DUP1 DUP3 PUSH20 0xFFFFFFFFFFFFFFFFFFFFFFFFFFFFFFFFFFFFFFFF AND EXTCODESIZE GT SWAP1 POP SWAP2 SWAP1 POP JUMP JUMPDEST PUSH1 0x0 PUSH32 0x1FFC9A700000000000000000000000000000000000000000000000000000000 PUSH28 0xFFFFFFFFFFFFFFFFFFFFFFFFFFFFFFFFFFFFFFFFFFFFFFFFFFFFFFFF NOT AND DUP3 PUSH28 0xFFFFFFFFFFFFFFFFFFFFFFFFFFFFFFFFFFFFFFFFFFFFFFFFFFFFFFFF NOT AND EQ SWAP1 POP SWAP2 SWAP1 POP JUMP JUMPDEST PUSH1 0x60 PUSH1 0x0 PUSH1 0x1 PUSH2 0x7D6 DUP5 PUSH2 0xFC5 JUMP JUMPDEST ADD SWAP1 POP PUSH1 0x0 DUP2 PUSH8 0xFFFFFFFFFFFFFFFF DUP2 GT ISZERO PUSH2 0x7F5 JUMPI PUSH2 0x7F4 PUSH2 0x1801 JUMP JUMPDEST JUMPDEST PUSH1 0x40 MLOAD SWAP1 DUP1 DUP3 MSTORE DUP1 PUSH1 0x1F ADD PUSH1 0x1F NOT AND PUSH1 0x20 ADD DUP3 ADD PUSH1 0x40 MSTORE DUP1 ISZERO PUSH2 0x827 JUMPI DUP2 PUSH1 0x20 ADD PUSH1 0x1 DUP3 MUL DUP1 CALLDATASIZE DUP4 CALLDATACOPY DUP1 DUP3 ADD SWAP2 POP POP SWAP1 POP JUMPDEST POP SWAP1 POP PUSH1 0x0 DUP3 PUSH1 0x20 ADD DUP3 ADD SWAP1 POP JUMPDEST PUSH1 0x1 ISZERO PUSH2 0x88A JUMPI DUP1 DUP1 PUSH1 0x1 SWAP1 SUB SWAP2 POP POP PUSH32 0x3031323334353637383961626364656600000000000000000000000000000000 PUSH1 0xA DUP7 MOD BYTE DUP2 MSTORE8 PUSH1 0xA DUP6 DUP2 PUSH2 0x87E JUMPI PUSH2 0x87D PUSH2 0x21CF JUMP JUMPDEST JUMPDEST DIV SWAP5 POP PUSH1 0x0 DUP6 SUB PUSH2 0x835 JUMPI JUMPDEST DUP2 SWAP4 POP POP POP POP SWAP2 SWAP1 POP JUMP JUMPDEST PUSH1 0x0 CALLER SWAP1 POP SWAP1 JUMP JUMPDEST DUP2 MLOAD DUP4 MLOAD EQ PUSH2 0x8E1 JUMPI PUSH1 0x40 MLOAD PUSH32 0x8C379A000000000000000000000000000000000000000000000000000000000 DUP2 MSTORE PUSH1 0x4 ADD PUSH2 0x8D8 SWAP1 PUSH2 0x2270 JUMP JUMPDEST PUSH1 0x40 MLOAD DUP1 SWAP2 SUB SWAP1 REVERT JUMPDEST PUSH1 0x0 PUSH20 0xFFFFFFFFFFFFFFFFFFFFFFFFFFFFFFFFFFFFFFFF AND DUP5 PUSH20 0xFFFFFFFFFFFFFFFFFFFFFFFFFFFFFFFFFFFFFFFF AND SUB PUSH2 0x950 JUMPI PUSH1 0x40 MLOAD PUSH32 0x8C379A000000000000000000000000000000000000000000000000000000000 DUP2 MSTORE PUSH1 0x4 ADD PUSH2 0x947 SWAP1 PUSH2 0x2302 JUMP JUMPDEST PUSH1 0x40 MLOAD DUP1 SWAP2 SUB SWAP1 REVERT JUMPDEST PUSH1 0x0 PUSH2 0x95A PUSH2 0x895 JUMP JUMPDEST SWAP1 POP PUSH2 0x96A DUP2 DUP8 DUP8 DUP8 DUP8 DUP8 PUSH2 0x1118 JUMP JUMPDEST PUSH1 0x0 JUMPDEST DUP5 MLOAD DUP2 LT ISZERO PUSH2 0xB1B JUMPI PUSH1 0x0 DUP6 DUP3 DUP2 MLOAD DUP2 LT PUSH2 0x98B JUMPI PUSH2 0x98A PUSH2 0x2129 JUMP JUMPDEST JUMPDEST PUSH1 0x20 MUL PUSH1 0x20 ADD ADD MLOAD SWAP1 POP PUSH1 0x0 DUP6 DUP4 DUP2 MLOAD DUP2 LT PUSH2 0x9AA JUMPI PUSH2 0x9A9 PUSH2 0x2129 JUMP JUMPDEST JUMPDEST PUSH1 0x20 MUL PUSH1 0x20 ADD ADD MLOAD SWAP1 POP PUSH1 0x0 DUP1 PUSH1 0x0 DUP5 DUP2 MSTORE PUSH1 0x20 ADD SWAP1 DUP2 MSTORE PUSH1 0x20 ADD PUSH1 0x0 KECCAK256 PUSH1 0x0 DUP12 PUSH20 0xFFFFFFFFFFFFFFFFFFFFFFFFFFFFFFFFFFFFFFFF AND PUSH20 0xFFFFFFFFFFFFFFFFFFFFFFFFFFFFFFFFFFFFFFFF AND DUP2 MSTORE PUSH1 0x20 ADD SWAP1 DUP2 MSTORE PUSH1 0x20 ADD PUSH1 0x0 KECCAK256 SLOAD SWAP1 POP DUP2 DUP2 LT ISZERO PUSH2 0xA4B JUMPI PUSH1 0x40 MLOAD PUSH32 0x8C379A000000000000000000000000000000000000000000000000000000000 DUP2 MSTORE PUSH1 0x4 ADD PUSH2 0xA42 SWAP1 PUSH2 0x2394 JUMP JUMPDEST PUSH1 0x40 MLOAD DUP1 SWAP2 SUB SWAP1 REVERT JUMPDEST DUP2 DUP2 SUB PUSH1 0x0 DUP1 DUP6 DUP2 MSTORE PUSH1 0x20 ADD SWAP1 DUP2 MSTORE PUSH1 0x20 ADD PUSH1 0x0 KECCAK256 PUSH1 0x0 DUP13 PUSH20 0xFFFFFFFFFFFFFFFFFFFFFFFFFFFFFFFFFFFFFFFF AND PUSH20 0xFFFFFFFFFFFFFFFFFFFFFFFFFFFFFFFFFFFFFFFF AND DUP2 MSTORE PUSH1 0x20 ADD SWAP1 DUP2 MSTORE PUSH1 0x20 ADD PUSH1 0x0 KECCAK256 DUP2 SWAP1 SSTORE POP DUP2 PUSH1 0x0 DUP1 DUP6 DUP2 MSTORE PUSH1 0x20 ADD SWAP1 DUP2 MSTORE PUSH1 0x20 ADD PUSH1 0x0 KECCAK256 PUSH1 0x0 DUP12 PUSH20 0xFFFFFFFFFFFFFFFFFFFFFFFFFFFFFFFFFFFFFFFF AND PUSH20 0xFFFFFFFFFFFFFFFFFFFFFFFFFFFFFFFFFFFFFFFF AND DUP2 MSTORE PUSH1 0x20 ADD SWAP1 DUP2 MSTORE PUSH1 0x20 ADD PUSH1 0x0 KECCAK256 PUSH1 0x0 DUP3 DUP3 SLOAD PUSH2 0xB00 SWAP2 SWAP1 PUSH2 0x23B4 JUMP JUMPDEST SWAP3 POP POP DUP2 SWAP1 SSTORE POP POP POP POP DUP1 PUSH2 0xB14 SWAP1 PUSH2 0x2187 JUMP JUMPDEST SWAP1 POP PUSH2 0x96D JUMP JUMPDEST POP DUP5 PUSH20 0xFFFFFFFFFFFFFFFFFFFFFFFFFFFFFFFFFFFFFFFF AND DUP7 PUSH20 0xFFFFFFFFFFFFFFFFFFFFFFFFFFFFFFFFFFFFFFFF AND DUP3 PUSH20 0xFFFFFFFFFFFFFFFFFFFFFFFFFFFFFFFFFFFFFFFF AND PUSH32 0x4A39DC06D4C0DBC64B70AF90FD698A233A518AA5D07E595D983B8C0526C8F7FB DUP8 DUP8 PUSH1 0x40 MLOAD PUSH2 0xB92 SWAP3 SWAP2 SWAP1 PUSH2 0x23E8 JUMP JUMPDEST PUSH1 0x40 MLOAD DUP1 SWAP2 SUB SWAP1 LOG4 PUSH2 0xBA8 DUP2 DUP8 DUP8 DUP8 DUP8 DUP8 PUSH2 0x1120 JUMP JUMPDEST PUSH2 0xBB6 DUP2 DUP8 DUP8 DUP8 DUP8 DUP8 PUSH2 0x1128 JUMP JUMPDEST POP POP POP POP POP POP JUMP JUMPDEST DUP2 PUSH20 0xFFFFFFFFFFFFFFFFFFFFFFFFFFFFFFFFFFFFFFFF AND DUP4 PUSH20 0xFFFFFFFFFFFFFFFFFFFFFFFFFFFFFFFFFFFFFFFF AND SUB PUSH2 0xC2C JUMPI PUSH1 0x40 MLOAD PUSH32 0x8C379A000000000000000000000000000000000000000000000000000000000 DUP2 MSTORE PUSH1 0x4 ADD PUSH2 0xC23 SWAP1 PUSH2 0x2491 JUMP JUMPDEST PUSH1 0x40 MLOAD DUP1 SWAP2 SUB SWAP1 REVERT JUMPDEST DUP1 PUSH1 0x1 PUSH1 0x0 DUP6 PUSH20 0xFFFFFFFFFFFFFFFFFFFFFFFFFFFFFFFFFFFFFFFF AND PUSH20 0xFFFFFFFFFFFFFFFFFFFFFFFFFFFFFFFFFFFFFFFF AND DUP2 MSTORE PUSH1 0x20 ADD SWAP1 DUP2 MSTORE PUSH1 0x20 ADD PUSH1 0x0 KECCAK256 PUSH1 0x0 DUP5 PUSH20 0xFFFFFFFFFFFFFFFFFFFFFFFFFFFFFFFFFFFFFFFF AND PUSH20 0xFFFFFFFFFFFFFFFFFFFFFFFFFFFFFFFFFFFFFFFF AND DUP2 MSTORE PUSH1 0x20 ADD SWAP1 DUP2 MSTORE PUSH1 0x20 ADD PUSH1 0x0 KECCAK256 PUSH1 0x0 PUSH2 0x100 EXP DUP2 SLOAD DUP2 PUSH1 0xFF MUL NOT AND SWAP1 DUP4 ISZERO ISZERO MUL OR SWAP1 SSTORE POP DUP2 PUSH20 0xFFFFFFFFFFFFFFFFFFFFFFFFFFFFFFFFFFFFFFFF AND DUP4 PUSH20 0xFFFFFFFFFFFFFFFFFFFFFFFFFFFFFFFFFFFFFFFF AND PUSH32 0x17307EAB39AB6107E8899845AD3D59BD9653F200F220920489CA2B5937696C31 DUP4 PUSH1 0x40 MLOAD PUSH2 0xD1D SWAP2 SWAP1 PUSH2 0x1702 JUMP JUMPDEST PUSH1 0x40 MLOAD DUP1 SWAP2 SUB SWAP1 LOG3 POP POP POP JUMP JUMPDEST PUSH1 0x0 PUSH20 0xFFFFFFFFFFFFFFFFFFFFFFFFFFFFFFFFFFFFFFFF AND DUP5 PUSH20 0xFFFFFFFFFFFFFFFFFFFFFFFFFFFFFFFFFFFFFFFF AND SUB PUSH2 0xD99 JUMPI PUSH1 0x40 MLOAD PUSH32 0x8C379A000000000000000000000000000000000000000000000000000000000 DUP2 MSTORE PUSH1 0x4 ADD PUSH2 0xD90 SWAP1 PUSH2 0x2302 JUMP JUMPDEST PUSH1 0x40 MLOAD DUP1 SWAP2 SUB SWAP1 REVERT JUMPDEST PUSH1 0x0 PUSH2 0xDA3 PUSH2 0x895 JUMP JUMPDEST SWAP1 POP PUSH1 0x0 PUSH2 0xDB0 DUP6 PUSH2 0x12FF JUMP JUMPDEST SWAP1 POP PUSH1 0x0 PUSH2 0xDBD DUP6 PUSH2 0x12FF JUMP JUMPDEST SWAP1 POP PUSH2 0xDCD DUP4 DUP10 DUP10 DUP6 DUP6 DUP10 PUSH2 0x1118 JUMP JUMPDEST PUSH1 0x0 DUP1 PUSH1 0x0 DUP9 DUP2 MSTORE PUSH1 0x20 ADD SWAP1 DUP2 MSTORE PUSH1 0x20 ADD PUSH1 0x0 KECCAK256 PUSH1 0x0 DUP11 PUSH20 0xFFFFFFFFFFFFFFFFFFFFFFFFFFFFFFFFFFFFFFFF AND PUSH20 0xFFFFFFFFFFFFFFFFFFFFFFFFFFFFFFFFFFFFFFFF AND DUP2 MSTORE PUSH1 0x20 ADD SWAP1 DUP2 MSTORE PUSH1 0x20 ADD PUSH1 0x0 KECCAK256 SLOAD SWAP1 POP DUP6 DUP2 LT ISZERO PUSH2 0xE64 JUMPI PUSH1 0x40 MLOAD PUSH32 0x8C379A000000000000000000000000000000000000000000000000000000000 DUP2 MSTORE PUSH1 0x4 ADD PUSH2 0xE5B SWAP1 PUSH2 0x2394 JUMP JUMPDEST PUSH1 0x40 MLOAD DUP1 SWAP2 SUB SWAP1 REVERT JUMPDEST DUP6 DUP2 SUB PUSH1 0x0 DUP1 DUP10 DUP2 MSTORE PUSH1 0x20 ADD SWAP1 DUP2 MSTORE PUSH1 0x20 ADD PUSH1 0x0 KECCAK256 PUSH1 0x0 DUP12 PUSH20 0xFFFFFFFFFFFFFFFFFFFFFFFFFFFFFFFFFFFFFFFF AND PUSH20 0xFFFFFFFFFFFFFFFFFFFFFFFFFFFFFFFFFFFFFFFF AND DUP2 MSTORE PUSH1 0x20 ADD SWAP1 DUP2 MSTORE PUSH1 0x20 ADD PUSH1 0x0 KECCAK256 DUP2 SWAP1 SSTORE POP DUP6 PUSH1 0x0 DUP1 DUP10 DUP2 MSTORE PUSH1 0x20 ADD SWAP1 DUP2 MSTORE PUSH1 0x20 ADD PUSH1 0x0 KECCAK256 PUSH1 0x0 DUP11 PUSH20 0xFFFFFFFFFFFFFFFFFFFFFFFFFFFFFFFFFFFFFFFF AND PUSH20 0xFFFFFFFFFFFFFFFFFFFFFFFFFFFFFFFFFFFFFFFF AND DUP2 MSTORE PUSH1 0x20 ADD SWAP1 DUP2 MSTORE PUSH1 0x20 ADD PUSH1 0x0 KECCAK256 PUSH1 0x0 DUP3 DUP3 SLOAD PUSH2 0xF19 SWAP2 SWAP1 PUSH2 0x23B4 JUMP JUMPDEST SWAP3 POP POP DUP2 SWAP1 SSTORE POP DUP8 PUSH20 0xFFFFFFFFFFFFFFFFFFFFFFFFFFFFFFFFFFFFFFFF AND DUP10 PUSH20 0xFFFFFFFFFFFFFFFFFFFFFFFFFFFFFFFFFFFFFFFF AND DUP6 PUSH20 0xFFFFFFFFFFFFFFFFFFFFFFFFFFFFFFFFFFFFFFFF AND PUSH32 0xC3D58168C5AE7397731D063D5BBF3D657854427343F4C083240F7AACAA2D0F62 DUP11 DUP11 PUSH1 0x40 MLOAD PUSH2 0xF96 SWAP3 SWAP2 SWAP1 PUSH2 0x24B1 JUMP JUMPDEST PUSH1 0x40 MLOAD DUP1 SWAP2 SUB SWAP1 LOG4 PUSH2 0xFAC DUP5 DUP11 DUP11 DUP7 DUP7 DUP11 PUSH2 0x1120 JUMP JUMPDEST PUSH2 0xFBA DUP5 DUP11 DUP11 DUP11 DUP11 DUP11 PUSH2 0x1379 JUMP JUMPDEST POP POP POP POP POP POP POP POP POP JUMP JUMPDEST PUSH1 0x0 DUP1 PUSH1 0x0 SWAP1 POP PUSH27 0x184F03E93FF9F4DAA797ED6E38ED64BF6A1F010000000000000000 DUP4 LT PUSH2 0x1023 JUMPI PUSH27 0x184F03E93FF9F4DAA797ED6E38ED64BF6A1F010000000000000000 DUP4 DUP2 PUSH2 0x1019 JUMPI PUSH2 0x1018 PUSH2 0x21CF JUMP JUMPDEST JUMPDEST DIV SWAP3 POP PUSH1 0x40 DUP2 ADD SWAP1 POP JUMPDEST PUSH14 0x4EE2D6D415B85ACEF8100000000 DUP4 LT PUSH2 0x1060 JUMPI PUSH14 0x4EE2D6D415B85ACEF8100000000 DUP4 DUP2 PUSH2 0x1056 JUMPI PUSH2 0x1055 PUSH2 0x21CF JUMP JUMPDEST JUMPDEST DIV SWAP3 POP PUSH1 0x20 DUP2 ADD SWAP1 POP JUMPDEST PUSH7 0x2386F26FC10000 DUP4 LT PUSH2 0x108F JUMPI PUSH7 0x2386F26FC10000 DUP4 DUP2 PUSH2 0x1085 JUMPI PUSH2 0x1084 PUSH2 0x21CF JUMP JUMPDEST JUMPDEST DIV SWAP3 POP PUSH1 0x10 DUP2 ADD SWAP1 POP JUMPDEST PUSH4 0x5F5E100 DUP4 LT PUSH2 0x10B8 JUMPI PUSH4 0x5F5E100 DUP4 DUP2 PUSH2 0x10AE JUMPI PUSH2 0x10AD PUSH2 0x21CF JUMP JUMPDEST JUMPDEST DIV SWAP3 POP PUSH1 0x8 DUP2 ADD SWAP1 POP JUMPDEST PUSH2 0x2710 DUP4 LT PUSH2 0x10DD JUMPI PUSH2 0x2710 DUP4 DUP2 PUSH2 0x10D3 JUMPI PUSH2 0x10D2 PUSH2 0x21CF JUMP JUMPDEST JUMPDEST DIV SWAP3 POP PUSH1 0x4 DUP2 ADD SWAP1 POP JUMPDEST PUSH1 0x64 DUP4 LT PUSH2 0x1100 JUMPI PUSH1 0x64 DUP4 DUP2 PUSH2 0x10F6 JUMPI PUSH2 0x10F5 PUSH2 0x21CF JUMP JUMPDEST JUMPDEST DIV SWAP3 POP PUSH1 0x2 DUP2 ADD SWAP1 POP JUMPDEST PUSH1 0xA DUP4 LT PUSH2 0x110F JUMPI PUSH1 0x1 DUP2 ADD SWAP1 POP JUMPDEST DUP1 SWAP2 POP POP SWAP2 SWAP1 POP JUMP JUMPDEST POP POP POP POP POP POP JUMP JUMPDEST POP POP POP POP POP POP JUMP JUMPDEST PUSH2 0x1147 DUP5 PUSH20 0xFFFFFFFFFFFFFFFFFFFFFFFFFFFFFFFFFFFFFFFF AND PUSH2 0x73A JUMP JUMPDEST ISZERO PUSH2 0x12F7 JUMPI DUP4 PUSH20 0xFFFFFFFFFFFFFFFFFFFFFFFFFFFFFFFFFFFFFFFF AND PUSH4 0xBC197C81 DUP8 DUP8 DUP7 DUP7 DUP7 PUSH1 0x40 MLOAD DUP7 PUSH4 0xFFFFFFFF AND PUSH1 0xE0 SHL DUP2 MSTORE PUSH1 0x4 ADD PUSH2 0x118D SWAP6 SWAP5 SWAP4 SWAP3 SWAP2 SWAP1 PUSH2 0x253E JUMP JUMPDEST PUSH1 0x20 PUSH1 0x40 MLOAD DUP1 DUP4 SUB DUP2 PUSH1 0x0 DUP8 GAS CALL SWAP3 POP POP POP DUP1 ISZERO PUSH2 0x11C9 JUMPI POP PUSH1 0x40 MLOAD RETURNDATASIZE PUSH1 0x1F NOT PUSH1 0x1F DUP3 ADD AND DUP3 ADD DUP1 PUSH1 0x40 MSTORE POP DUP2 ADD SWAP1 PUSH2 0x11C6 SWAP2 SWAP1 PUSH2 0x25BB JUMP JUMPDEST PUSH1 0x1 JUMPDEST PUSH2 0x126E JUMPI PUSH2 0x11D5 PUSH2 0x25F5 JUMP JUMPDEST DUP1 PUSH4 0x8C379A0 SUB PUSH2 0x1231 JUMPI POP PUSH2 0x11E9 PUSH2 0x2617 JUMP JUMPDEST DUP1 PUSH2 0x11F4 JUMPI POP PUSH2 0x1233 JUMP JUMPDEST DUP1 PUSH1 0x40 MLOAD PUSH32 0x8C379A000000000000000000000000000000000000000000000000000000000 DUP2 MSTORE PUSH1 0x4 ADD PUSH2 0x1228 SWAP2 SWAP1 PUSH2 0x17DA JUMP JUMPDEST PUSH1 0x40 MLOAD DUP1 SWAP2 SUB SWAP1 REVERT JUMPDEST POP JUMPDEST PUSH1 0x40 MLOAD PUSH32 0x8C379A000000000000000000000000000000000000000000000000000000000 DUP2 MSTORE PUSH1 0x4 ADD PUSH2 0x1265 SWAP1 PUSH2 0x2719 JUMP JUMPDEST PUSH1 0x40 MLOAD DUP1 SWAP2 SUB SWAP1 REVERT JUMPDEST PUSH4 0xBC197C81 PUSH1 0xE0 SHL PUSH28 0xFFFFFFFFFFFFFFFFFFFFFFFFFFFFFFFFFFFFFFFFFFFFFFFFFFFFFFFF NOT AND DUP2 PUSH28 0xFFFFFFFFFFFFFFFFFFFFFFFFFFFFFFFFFFFFFFFFFFFFFFFFFFFFFFFF NOT AND EQ PUSH2 0x12F5 JUMPI PUSH1 0x40 MLOAD PUSH32 0x8C379A000000000000000000000000000000000000000000000000000000000 DUP2 MSTORE PUSH1 0x4 ADD PUSH2 0x12EC SWAP1 PUSH2 0x27AB JUMP JUMPDEST PUSH1 0x40 MLOAD DUP1 SWAP2 SUB SWAP1 REVERT JUMPDEST POP JUMPDEST POP POP POP POP POP POP JUMP JUMPDEST PUSH1 0x60 PUSH1 0x0 PUSH1 0x1 PUSH8 0xFFFFFFFFFFFFFFFF DUP2 GT ISZERO PUSH2 0x131E JUMPI PUSH2 0x131D PUSH2 0x1801 JUMP JUMPDEST JUMPDEST PUSH1 0x40 MLOAD SWAP1 DUP1 DUP3 MSTORE DUP1 PUSH1 0x20 MUL PUSH1 0x20 ADD DUP3 ADD PUSH1 0x40 MSTORE DUP1 ISZERO PUSH2 0x134C JUMPI DUP2 PUSH1 0x20 ADD PUSH1 0x20 DUP3 MUL DUP1 CALLDATASIZE DUP4 CALLDATACOPY DUP1 DUP3 ADD SWAP2 POP POP SWAP1 POP JUMPDEST POP SWAP1 POP DUP3 DUP2 PUSH1 0x0 DUP2 MLOAD DUP2 LT PUSH2 0x1364 JUMPI PUSH2 0x1363 PUSH2 0x2129 JUMP JUMPDEST JUMPDEST PUSH1 0x20 MUL PUSH1 0x20 ADD ADD DUP2 DUP2 MSTORE POP POP DUP1 SWAP2 POP POP SWAP2 SWAP1 POP JUMP JUMPDEST PUSH2 0x1398 DUP5 PUSH20 0xFFFFFFFFFFFFFFFFFFFFFFFFFFFFFFFFFFFFFFFF AND PUSH2 0x73A JUMP JUMPDEST ISZERO PUSH2 0x1548 JUMPI DUP4 PUSH20 0xFFFFFFFFFFFFFFFFFFFFFFFFFFFFFFFFFFFFFFFF AND PUSH4 0xF23A6E61 DUP8 DUP8 DUP7 DUP7 DUP7 PUSH1 0x40 MLOAD DUP7 PUSH4 0xFFFFFFFF AND PUSH1 0xE0 SHL DUP2 MSTORE PUSH1 0x4 ADD PUSH2 0x13DE SWAP6 SWAP5 SWAP4 SWAP3 SWAP2 SWAP1 PUSH2 0x27CB JUMP JUMPDEST PUSH1 0x20 PUSH1 0x40 MLOAD DUP1 DUP4 SUB DUP2 PUSH1 0x0 DUP8 GAS CALL SWAP3 POP POP POP DUP1 ISZERO PUSH2 0x141A JUMPI POP PUSH1 0x40 MLOAD RETURNDATASIZE PUSH1 0x1F NOT PUSH1 0x1F DUP3 ADD AND DUP3 ADD DUP1 PUSH1 0x40 MSTORE POP DUP2 ADD SWAP1 PUSH2 0x1417 SWAP2 SWAP1 PUSH2 0x25BB JUMP JUMPDEST PUSH1 0x1 JUMPDEST PUSH2 0x14BF JUMPI PUSH2 0x1426 PUSH2 0x25F5 JUMP JUMPDEST DUP1 PUSH4 0x8C379A0 SUB PUSH2 0x1482 JUMPI POP PUSH2 0x143A PUSH2 0x2617 JUMP JUMPDEST DUP1 PUSH2 0x1445 JUMPI POP PUSH2 0x1484 JUMP JUMPDEST DUP1 PUSH1 0x40 MLOAD PUSH32 0x8C379A000000000000000000000000000000000000000000000000000000000 DUP2 MSTORE PUSH1 0x4 ADD PUSH2 0x1479 SWAP2 SWAP1 PUSH2 0x17DA JUMP JUMPDEST PUSH1 0x40 MLOAD DUP1 SWAP2 SUB SWAP1 REVERT JUMPDEST POP JUMPDEST PUSH1 0x40 MLOAD PUSH32 0x8C379A000000000000000000000000000000000000000000000000000000000 DUP2 MSTORE PUSH1 0x4 ADD PUSH2 0x14B6 SWAP1 PUSH2 0x2719 JUMP JUMPDEST PUSH1 0x40 MLOAD DUP1 SWAP2 SUB SWAP1 REVERT JUMPDEST PUSH4 0xF23A6E61 PUSH1 0xE0 SHL PUSH28 0xFFFFFFFFFFFFFFFFFFFFFFFFFFFFFFFFFFFFFFFFFFFFFFFFFFFFFFFF NOT AND DUP2 PUSH28 0xFFFFFFFFFFFFFFFFFFFFFFFFFFFFFFFFFFFFFFFFFFFFFFFFFFFFFFFF NOT AND EQ PUSH2 0x1546 JUMPI PUSH1 0x40 MLOAD PUSH32 0x8C379A000000000000000000000000000000000000000000000000000000000 DUP2 MSTORE PUSH1 0x4 ADD PUSH2 0x153D SWAP1 PUSH2 0x27AB JUMP JUMPDEST PUSH1 0x40 MLOAD DUP1 SWAP2 SUB SWAP1 REVERT JUMPDEST POP JUMPDEST POP POP POP POP POP POP JUMP JUMPDEST PUSH1 0x0 PUSH1 0x40 MLOAD SWAP1 POP SWAP1 JUMP JUMPDEST PUSH1 0x0 DUP1 REVERT JUMPDEST PUSH1 0x0 DUP1 REVERT JUMPDEST PUSH1 0x0 PUSH20 0xFFFFFFFFFFFFFFFFFFFFFFFFFFFFFFFFFFFFFFFF DUP3 AND SWAP1 POP SWAP2 SWAP1 POP JUMP JUMPDEST PUSH1 0x0 PUSH2 0x158F DUP3 PUSH2 0x1564 JUMP JUMPDEST SWAP1 POP SWAP2 SWAP1 POP JUMP JUMPDEST PUSH2 0x159F DUP2 PUSH2 0x1584 JUMP JUMPDEST DUP2 EQ PUSH2 0x15AA JUMPI PUSH1 0x0 DUP1 REVERT JUMPDEST POP JUMP JUMPDEST PUSH1 0x0 DUP2 CALLDATALOAD SWAP1 POP PUSH2 0x15BC DUP2 PUSH2 0x1596 JUMP JUMPDEST SWAP3 SWAP2 POP POP JUMP JUMPDEST PUSH1 0x0 DUP2 SWAP1 POP SWAP2 SWAP1 POP JUMP JUMPDEST PUSH2 0x15D5 DUP2 PUSH2 0x15C2 JUMP JUMPDEST DUP2 EQ PUSH2 0x15E0 JUMPI PUSH1 0x0 DUP1 REVERT JUMPDEST POP JUMP JUMPDEST PUSH1 0x0 DUP2 CALLDATALOAD SWAP1 POP PUSH2 0x15F2 DUP2 PUSH2 0x15CC JUMP JUMPDEST SWAP3 SWAP2 POP POP JUMP JUMPDEST PUSH1 0x0 DUP1 PUSH1 0x40 DUP4 DUP6 SUB SLT ISZERO PUSH2 0x160F JUMPI PUSH2 0x160E PUSH2 0x155A JUMP JUMPDEST JUMPDEST PUSH1 0x0 PUSH2 0x161D DUP6 DUP3 DUP7 ADD PUSH2 0x15AD JUMP JUMPDEST SWAP3 POP POP PUSH1 0x20 PUSH2 0x162E DUP6 DUP3 DUP7 ADD PUSH2 0x15E3 JUMP JUMPDEST SWAP2 POP POP SWAP3 POP SWAP3 SWAP1 POP JUMP JUMPDEST PUSH2 0x1641 DUP2 PUSH2 0x15C2 JUMP JUMPDEST DUP3 MSTORE POP POP JUMP JUMPDEST PUSH1 0x0 PUSH1 0x20 DUP3 ADD SWAP1 POP PUSH2 0x165C PUSH1 0x0 DUP4 ADD DUP5 PUSH2 0x1638 JUMP JUMPDEST SWAP3 SWAP2 POP POP JUMP JUMPDEST PUSH1 0x0 PUSH32 0xFFFFFFFF00000000000000000000000000000000000000000000000000000000 DUP3 AND SWAP1 POP SWAP2 SWAP1 POP JUMP JUMPDEST PUSH2 0x1697 DUP2 PUSH2 0x1662 JUMP JUMPDEST DUP2 EQ PUSH2 0x16A2 JUMPI PUSH1 0x0 DUP1 REVERT JUMPDEST POP JUMP JUMPDEST PUSH1 0x0 DUP2 CALLDATALOAD SWAP1 POP PUSH2 0x16B4 DUP2 PUSH2 0x168E JUMP JUMPDEST SWAP3 SWAP2 POP POP JUMP JUMPDEST PUSH1 0x0 PUSH1 0x20 DUP3 DUP5 SUB SLT ISZERO PUSH2 0x16D0 JUMPI PUSH2 0x16CF PUSH2 0x155A JUMP JUMPDEST JUMPDEST PUSH1 0x0 PUSH2 0x16DE DUP5 DUP3 DUP6 ADD PUSH2 0x16A5 JUMP JUMPDEST SWAP2 POP POP SWAP3 SWAP2 POP POP JUMP JUMPDEST PUSH1 0x0 DUP2 ISZERO ISZERO SWAP1 POP SWAP2 SWAP1 POP JUMP JUMPDEST PUSH2 0x16FC DUP2 PUSH2 0x16E7 JUMP JUMPDEST DUP3 MSTORE POP POP JUMP JUMPDEST PUSH1 0x0 PUSH1 0x20 DUP3 ADD SWAP1 POP PUSH2 0x1717 PUSH1 0x0 DUP4 ADD DUP5 PUSH2 0x16F3 JUMP JUMPDEST SWAP3 SWAP2 POP POP JUMP JUMPDEST PUSH1 0x0 PUSH1 0x20 DUP3 DUP5 SUB SLT ISZERO PUSH2 0x1733 JUMPI PUSH2 0x1732 PUSH2 0x155A JUMP JUMPDEST JUMPDEST PUSH1 0x0 PUSH2 0x1741 DUP5 DUP3 DUP6 ADD PUSH2 0x15E3 JUMP JUMPDEST SWAP2 POP POP SWAP3 SWAP2 POP POP JUMP JUMPDEST PUSH1 0x0 DUP2 MLOAD SWAP1 POP SWAP2 SWAP1 POP JUMP JUMPDEST PUSH1 0x0 DUP3 DUP3 MSTORE PUSH1 0x20 DUP3 ADD SWAP1 POP SWAP3 SWAP2 POP POP JUMP JUMPDEST PUSH1 0x0 JUMPDEST DUP4 DUP2 LT ISZERO PUSH2 0x1784 JUMPI DUP1 DUP3 ADD MLOAD DUP2 DUP5 ADD MSTORE PUSH1 0x20 DUP2 ADD SWAP1 POP PUSH2 0x1769 JUMP JUMPDEST PUSH1 0x0 DUP5 DUP5 ADD MSTORE POP POP POP POP JUMP JUMPDEST PUSH1 0x0 PUSH1 0x1F NOT PUSH1 0x1F DUP4 ADD AND SWAP1 POP SWAP2 SWAP1 POP JUMP JUMPDEST PUSH1 0x0 PUSH2 0x17AC DUP3 PUSH2 0x174A JUMP JUMPDEST PUSH2 0x17B6 DUP2 DUP6 PUSH2 0x1755 JUMP JUMPDEST SWAP4 POP PUSH2 0x17C6 DUP2 DUP6 PUSH1 0x20 DUP7 ADD PUSH2 0x1766 JUMP JUMPDEST PUSH2 0x17CF DUP2 PUSH2 0x1790 JUMP JUMPDEST DUP5 ADD SWAP2 POP POP SWAP3 SWAP2 POP POP JUMP JUMPDEST PUSH1 0x0 PUSH1 0x20 DUP3 ADD SWAP1 POP DUP2 DUP2 SUB PUSH1 0x0 DUP4 ADD MSTORE PUSH2 0x17F4 DUP2 DUP5 PUSH2 0x17A1 JUMP JUMPDEST SWAP1 POP SWAP3 SWAP2 POP POP JUMP JUMPDEST PUSH1 0x0 DUP1 REVERT JUMPDEST PUSH32 0x4E487B7100000000000000000000000000000000000000000000000000000000 PUSH1 0x0 MSTORE PUSH1 0x41 PUSH1 0x4 MSTORE PUSH1 0x24 PUSH1 0x0 REVERT JUMPDEST PUSH2 0x1839 DUP3 PUSH2 0x1790 JUMP JUMPDEST DUP2 ADD DUP2 DUP2 LT PUSH8 0xFFFFFFFFFFFFFFFF DUP3 GT OR ISZERO PUSH2 0x1858 JUMPI PUSH2 0x1857 PUSH2 0x1801 JUMP JUMPDEST JUMPDEST DUP1 PUSH1 0x40 MSTORE POP POP POP JUMP JUMPDEST PUSH1 0x0 PUSH2 0x186B PUSH2 0x1550 JUMP JUMPDEST SWAP1 POP PUSH2 0x1877 DUP3 DUP3 PUSH2 0x1830 JUMP JUMPDEST SWAP2 SWAP1 POP JUMP JUMPDEST PUSH1 0x0 PUSH8 0xFFFFFFFFFFFFFFFF DUP3 GT ISZERO PUSH2 0x1897 JUMPI PUSH2 0x1896 PUSH2 0x1801 JUMP JUMPDEST JUMPDEST PUSH1 0x20 DUP3 MUL SWAP1 POP PUSH1 0x20 DUP2 ADD SWAP1 POP SWAP2 SWAP1 POP JUMP JUMPDEST PUSH1 0x0 DUP1 REVERT JUMPDEST PUSH1 0x0 PUSH2 0x18C0 PUSH2 0x18BB DUP5 PUSH2 0x187C JUMP JUMPDEST PUSH2 0x1861 JUMP JUMPDEST SWAP1 POP DUP1 DUP4 DUP3 MSTORE PUSH1 0x20 DUP3 ADD SWAP1 POP PUSH1 0x20 DUP5 MUL DUP4 ADD DUP6 DUP2 GT ISZERO PUSH2 0x18E3 JUMPI PUSH2 0x18E2 PUSH2 0x18A8 JUMP JUMPDEST JUMPDEST DUP4 JUMPDEST DUP2 DUP2 LT ISZERO PUSH2 0x190C JUMPI DUP1 PUSH2 0x18F8 DUP9 DUP3 PUSH2 0x15E3 JUMP JUMPDEST DUP5 MSTORE PUSH1 0x20 DUP5 ADD SWAP4 POP POP PUSH1 0x20 DUP2 ADD SWAP1 POP PUSH2 0x18E5 JUMP JUMPDEST POP POP POP SWAP4 SWAP3 POP POP POP JUMP JUMPDEST PUSH1 0x0 DUP3 PUSH1 0x1F DUP4 ADD SLT PUSH2 0x192B JUMPI PUSH2 0x192A PUSH2 0x17FC JUMP JUMPDEST JUMPDEST DUP2 CALLDATALOAD PUSH2 0x193B DUP5 DUP3 PUSH1 0x20 DUP7 ADD PUSH2 0x18AD JUMP JUMPDEST SWAP2 POP POP SWAP3 SWAP2 POP POP JUMP JUMPDEST PUSH1 0x0 DUP1 REVERT JUMPDEST PUSH1 0x0 PUSH8 0xFFFFFFFFFFFFFFFF DUP3 GT ISZERO PUSH2 0x1964 JUMPI PUSH2 0x1963 PUSH2 0x1801 JUMP JUMPDEST JUMPDEST PUSH2 0x196D DUP3 PUSH2 0x1790 JUMP JUMPDEST SWAP1 POP PUSH1 0x20 DUP2 ADD SWAP1 POP SWAP2 SWAP1 POP JUMP JUMPDEST DUP3 DUP2 DUP4 CALLDATACOPY PUSH1 0x0 DUP4 DUP4 ADD MSTORE POP POP POP JUMP JUMPDEST PUSH1 0x0 PUSH2 0x199C PUSH2 0x1997 DUP5 PUSH2 0x1949 JUMP JUMPDEST PUSH2 0x1861 JUMP JUMPDEST SWAP1 POP DUP3 DUP2 MSTORE PUSH1 0x20 DUP2 ADD DUP5 DUP5 DUP5 ADD GT ISZERO PUSH2 0x19B8 JUMPI PUSH2 0x19B7 PUSH2 0x1944 JUMP JUMPDEST JUMPDEST PUSH2 0x19C3 DUP5 DUP3 DUP6 PUSH2 0x197A JUMP JUMPDEST POP SWAP4 SWAP3 POP POP POP JUMP JUMPDEST PUSH1 0x0 DUP3 PUSH1 0x1F DUP4 ADD SLT PUSH2 0x19E0 JUMPI PUSH2 0x19DF PUSH2 0x17FC JUMP JUMPDEST JUMPDEST DUP2 CALLDATALOAD PUSH2 0x19F0 DUP5 DUP3 PUSH1 0x20 DUP7 ADD PUSH2 0x1989 JUMP JUMPDEST SWAP2 POP POP SWAP3 SWAP2 POP POP JUMP JUMPDEST PUSH1 0x0 DUP1 PUSH1 0x0 DUP1 PUSH1 0x0 PUSH1 0xA0 DUP7 DUP9 SUB SLT ISZERO PUSH2 0x1A15 JUMPI PUSH2 0x1A14 PUSH2 0x155A JUMP JUMPDEST JUMPDEST PUSH1 0x0 PUSH2 0x1A23 DUP9 DUP3 DUP10 ADD PUSH2 0x15AD JUMP JUMPDEST SWAP6 POP POP PUSH1 0x20 PUSH2 0x1A34 DUP9 DUP3 DUP10 ADD PUSH2 0x15AD JUMP JUMPDEST SWAP5 POP POP PUSH1 0x40 DUP7 ADD CALLDATALOAD PUSH8 0xFFFFFFFFFFFFFFFF DUP2 GT ISZERO PUSH2 0x1A55 JUMPI PUSH2 0x1A54 PUSH2 0x155F JUMP JUMPDEST JUMPDEST PUSH2 0x1A61 DUP9 DUP3 DUP10 ADD PUSH2 0x1916 JUMP JUMPDEST SWAP4 POP POP PUSH1 0x60 DUP7 ADD CALLDATALOAD PUSH8 0xFFFFFFFFFFFFFFFF DUP2 GT ISZERO PUSH2 0x1A82 JUMPI PUSH2 0x1A81 PUSH2 0x155F JUMP JUMPDEST JUMPDEST PUSH2 0x1A8E DUP9 DUP3 DUP10 ADD PUSH2 0x1916 JUMP JUMPDEST SWAP3 POP POP PUSH1 0x80 DUP7 ADD CALLDATALOAD PUSH8 0xFFFFFFFFFFFFFFFF DUP2 GT ISZERO PUSH2 0x1AAF JUMPI PUSH2 0x1AAE PUSH2 0x155F JUMP JUMPDEST JUMPDEST PUSH2 0x1ABB DUP9 DUP3 DUP10 ADD PUSH2 0x19CB JUMP JUMPDEST SWAP2 POP POP SWAP3 SWAP6 POP SWAP3 SWAP6 SWAP1 SWAP4 POP JUMP JUMPDEST PUSH1 0x0 PUSH8 0xFFFFFFFFFFFFFFFF DUP3 GT ISZERO PUSH2 0x1AE3 JUMPI PUSH2 0x1AE2 PUSH2 0x1801 JUMP JUMPDEST JUMPDEST PUSH1 0x20 DUP3 MUL SWAP1 POP PUSH1 0x20 DUP2 ADD SWAP1 POP SWAP2 SWAP1 POP JUMP JUMPDEST PUSH1 0x0 PUSH2 0x1B07 PUSH2 0x1B02 DUP5 PUSH2 0x1AC8 JUMP JUMPDEST PUSH2 0x1861 JUMP JUMPDEST SWAP1 POP DUP1 DUP4 DUP3 MSTORE PUSH1 0x20 DUP3 ADD SWAP1 POP PUSH1 0x20 DUP5 MUL DUP4 ADD DUP6 DUP2 GT ISZERO PUSH2 0x1B2A JUMPI PUSH2 0x1B29 PUSH2 0x18A8 JUMP JUMPDEST JUMPDEST DUP4 JUMPDEST DUP2 DUP2 LT ISZERO PUSH2 0x1B53 JUMPI DUP1 PUSH2 0x1B3F DUP9 DUP3 PUSH2 0x15AD JUMP JUMPDEST DUP5 MSTORE PUSH1 0x20 DUP5 ADD SWAP4 POP POP PUSH1 0x20 DUP2 ADD SWAP1 POP PUSH2 0x1B2C JUMP JUMPDEST POP POP POP SWAP4 SWAP3 POP POP POP JUMP JUMPDEST PUSH1 0x0 DUP3 PUSH1 0x1F DUP4 ADD SLT PUSH2 0x1B72 JUMPI PUSH2 0x1B71 PUSH2 0x17FC JUMP JUMPDEST JUMPDEST DUP2 CALLDATALOAD PUSH2 0x1B82 DUP5 DUP3 PUSH1 0x20 DUP7 ADD PUSH2 0x1AF4 JUMP JUMPDEST SWAP2 POP POP SWAP3 SWAP2 POP POP JUMP JUMPDEST PUSH1 0x0 DUP1 PUSH1 0x40 DUP4 DUP6 SUB SLT ISZERO PUSH2 0x1BA2 JUMPI PUSH2 0x1BA1 PUSH2 0x155A JUMP JUMPDEST JUMPDEST PUSH1 0x0 DUP4 ADD CALLDATALOAD PUSH8 0xFFFFFFFFFFFFFFFF DUP2 GT ISZERO PUSH2 0x1BC0 JUMPI PUSH2 0x1BBF PUSH2 0x155F JUMP JUMPDEST JUMPDEST PUSH2 0x1BCC DUP6 DUP3 DUP7 ADD PUSH2 0x1B5D JUMP JUMPDEST SWAP3 POP POP PUSH1 0x20 DUP4 ADD CALLDATALOAD PUSH8 0xFFFFFFFFFFFFFFFF DUP2 GT ISZERO PUSH2 0x1BED JUMPI PUSH2 0x1BEC PUSH2 0x155F JUMP JUMPDEST JUMPDEST PUSH2 0x1BF9 DUP6 DUP3 DUP7 ADD PUSH2 0x1916 JUMP JUMPDEST SWAP2 POP POP SWAP3 POP SWAP3 SWAP1 POP JUMP JUMPDEST PUSH1 0x0 DUP2 MLOAD SWAP1 POP SWAP2 SWAP1 POP JUMP JUMPDEST PUSH1 0x0 DUP3 DUP3 MSTORE PUSH1 0x20 DUP3 ADD SWAP1 POP SWAP3 SWAP2 POP POP JUMP JUMPDEST PUSH1 0x0 DUP2 SWAP1 POP PUSH1 0x20 DUP3 ADD SWAP1 POP SWAP2 SWAP1 POP JUMP JUMPDEST PUSH2 0x1C38 DUP2 PUSH2 0x15C2 JUMP JUMPDEST DUP3 MSTORE POP POP JUMP JUMPDEST PUSH1 0x0 PUSH2 0x1C4A DUP4 DUP4 PUSH2 0x1C2F JUMP JUMPDEST PUSH1 0x20 DUP4 ADD SWAP1 POP SWAP3 SWAP2 POP POP JUMP JUMPDEST PUSH1 0x0 PUSH1 0x20 DUP3 ADD SWAP1 POP SWAP2 SWAP1 POP JUMP JUMPDEST PUSH1 0x0 PUSH2 0x1C6E DUP3 PUSH2 0x1C03 JUMP JUMPDEST PUSH2 0x1C78 DUP2 DUP6 PUSH2 0x1C0E JUMP JUMPDEST SWAP4 POP PUSH2 0x1C83 DUP4 PUSH2 0x1C1F JUMP JUMPDEST DUP1 PUSH1 0x0 JUMPDEST DUP4 DUP2 LT ISZERO PUSH2 0x1CB4 JUMPI DUP2 MLOAD PUSH2 0x1C9B DUP9 DUP3 PUSH2 0x1C3E JUMP JUMPDEST SWAP8 POP PUSH2 0x1CA6 DUP4 PUSH2 0x1C56 JUMP JUMPDEST SWAP3 POP POP PUSH1 0x1 DUP2 ADD SWAP1 POP PUSH2 0x1C87 JUMP JUMPDEST POP DUP6 SWAP4 POP POP POP POP SWAP3 SWAP2 POP POP JUMP JUMPDEST PUSH1 0x0 PUSH1 0x20 DUP3 ADD SWAP1 POP DUP2 DUP2 SUB PUSH1 0x0 DUP4 ADD MSTORE PUSH2 0x1CDB DUP2 DUP5 PUSH2 0x1C63 JUMP JUMPDEST SWAP1 POP SWAP3 SWAP2 POP POP JUMP JUMPDEST PUSH2 0x1CEC DUP2 PUSH2 0x16E7 JUMP JUMPDEST DUP2 EQ PUSH2 0x1CF7 JUMPI PUSH1 0x0 DUP1 REVERT JUMPDEST POP JUMP JUMPDEST PUSH1 0x0 DUP2 CALLDATALOAD SWAP1 POP PUSH2 0x1D09 DUP2 PUSH2 0x1CE3 JUMP JUMPDEST SWAP3 SWAP2 POP POP JUMP JUMPDEST PUSH1 0x0 DUP1 PUSH1 0x40 DUP4 DUP6 SUB SLT ISZERO PUSH2 0x1D26 JUMPI PUSH2 0x1D25 PUSH2 0x155A JUMP JUMPDEST JUMPDEST PUSH1 0x0 PUSH2 0x1D34 DUP6 DUP3 DUP7 ADD PUSH2 0x15AD JUMP JUMPDEST SWAP3 POP POP PUSH1 0x20 PUSH2 0x1D45 DUP6 DUP3 DUP7 ADD PUSH2 0x1CFA JUMP JUMPDEST SWAP2 POP POP SWAP3 POP SWAP3 SWAP1 POP JUMP JUMPDEST PUSH1 0x0 DUP1 PUSH1 0x40 DUP4 DUP6 SUB SLT ISZERO PUSH2 0x1D66 JUMPI PUSH2 0x1D65 PUSH2 0x155A JUMP JUMPDEST JUMPDEST PUSH1 0x0 PUSH2 0x1D74 DUP6 DUP3 DUP7 ADD PUSH2 0x15AD JUMP JUMPDEST SWAP3 POP POP PUSH1 0x20 PUSH2 0x1D85 DUP6 DUP3 DUP7 ADD PUSH2 0x15AD JUMP JUMPDEST SWAP2 POP POP SWAP3 POP SWAP3 SWAP1 POP JUMP JUMPDEST PUSH1 0x0 DUP1 PUSH1 0x0 DUP1 PUSH1 0x0 PUSH1 0xA0 DUP7 DUP9 SUB SLT ISZERO PUSH2 0x1DAB JUMPI PUSH2 0x1DAA PUSH2 0x155A JUMP JUMPDEST JUMPDEST PUSH1 0x0 PUSH2 0x1DB9 DUP9 DUP3 DUP10 ADD PUSH2 0x15AD JUMP JUMPDEST SWAP6 POP POP PUSH1 0x20 PUSH2 0x1DCA DUP9 DUP3 DUP10 ADD PUSH2 0x15AD JUMP JUMPDEST SWAP5 POP POP PUSH1 0x40 PUSH2 0x1DDB DUP9 DUP3 DUP10 ADD PUSH2 0x15E3 JUMP JUMPDEST SWAP4 POP POP PUSH1 0x60 PUSH2 0x1DEC DUP9 DUP3 DUP10 ADD PUSH2 0x15E3 JUMP JUMPDEST SWAP3 POP POP PUSH1 0x80 DUP7 ADD CALLDATALOAD PUSH8 0xFFFFFFFFFFFFFFFF DUP2 GT ISZERO PUSH2 0x1E0D JUMPI PUSH2 0x1E0C PUSH2 0x155F JUMP JUMPDEST JUMPDEST PUSH2 0x1E19 DUP9 DUP3 DUP10 ADD PUSH2 0x19CB JUMP JUMPDEST SWAP2 POP POP SWAP3 SWAP6 POP SWAP3 SWAP6 SWAP1 SWAP4 POP JUMP JUMPDEST PUSH32 0x455243313135353A2061646472657373207A65726F206973206E6F7420612076 PUSH1 0x0 DUP3 ADD MSTORE PUSH32 0x616C6964206F776E657200000000000000000000000000000000000000000000 PUSH1 0x20 DUP3 ADD MSTORE POP JUMP JUMPDEST PUSH1 0x0 PUSH2 0x1E82 PUSH1 0x2A DUP4 PUSH2 0x1755 JUMP JUMPDEST SWAP2 POP PUSH2 0x1E8D DUP3 PUSH2 0x1E26 JUMP JUMPDEST PUSH1 0x40 DUP3 ADD SWAP1 POP SWAP2 SWAP1 POP JUMP JUMPDEST PUSH1 0x0 PUSH1 0x20 DUP3 ADD SWAP1 POP DUP2 DUP2 SUB PUSH1 0x0 DUP4 ADD MSTORE PUSH2 0x1EB1 DUP2 PUSH2 0x1E75 JUMP JUMPDEST SWAP1 POP SWAP2 SWAP1 POP JUMP JUMPDEST PUSH1 0x0 DUP2 SWAP1 POP SWAP3 SWAP2 POP POP JUMP JUMPDEST PUSH32 0x68747470733A2F2F697066732E696F2F697066732F62616679626569686A6A6B PUSH1 0x0 DUP3 ADD MSTORE PUSH32 0x77647278786A6E757765766C7174716D683369656763616463333273696F3477 PUSH1 0x20 DUP3 ADD MSTORE PUSH32 0x6D6F37627632676266333471733334612F000000000000000000000000000000 PUSH1 0x40 DUP3 ADD MSTORE POP JUMP JUMPDEST PUSH1 0x0 PUSH2 0x1F45 PUSH1 0x51 DUP4 PUSH2 0x1EB8 JUMP JUMPDEST SWAP2 POP PUSH2 0x1F50 DUP3 PUSH2 0x1EC3 JUMP JUMPDEST PUSH1 0x51 DUP3 ADD SWAP1 POP SWAP2 SWAP1 POP JUMP JUMPDEST PUSH1 0x0 PUSH2 0x1F66 DUP3 PUSH2 0x174A JUMP JUMPDEST PUSH2 0x1F70 DUP2 DUP6 PUSH2 0x1EB8 JUMP JUMPDEST SWAP4 POP PUSH2 0x1F80 DUP2 DUP6 PUSH1 0x20 DUP7 ADD PUSH2 0x1766 JUMP JUMPDEST DUP1 DUP5 ADD SWAP2 POP POP SWAP3 SWAP2 POP POP JUMP JUMPDEST PUSH32 0x2E6A736F6E000000000000000000000000000000000000000000000000000000 PUSH1 0x0 DUP3 ADD MSTORE POP JUMP JUMPDEST PUSH1 0x0 PUSH2 0x1FC2 PUSH1 0x5 DUP4 PUSH2 0x1EB8 JUMP JUMPDEST SWAP2 POP PUSH2 0x1FCD DUP3 PUSH2 0x1F8C JUMP JUMPDEST PUSH1 0x5 DUP3 ADD SWAP1 POP SWAP2 SWAP1 POP JUMP JUMPDEST PUSH1 0x0 PUSH2 0x1FE3 DUP3 PUSH2 0x1F38 JUMP JUMPDEST SWAP2 POP PUSH2 0x1FEF DUP3 DUP5 PUSH2 0x1F5B JUMP JUMPDEST SWAP2 POP PUSH2 0x1FFA DUP3 PUSH2 0x1FB5 JUMP JUMPDEST SWAP2 POP DUP2 SWAP1 POP SWAP3 SWAP2 POP POP JUMP JUMPDEST PUSH32 0x455243313135353A2063616C6C6572206973206E6F7420746F6B656E206F776E PUSH1 0x0 DUP3 ADD MSTORE PUSH32 0x6572206F7220617070726F766564000000000000000000000000000000000000 PUSH1 0x20 DUP3 ADD MSTORE POP JUMP JUMPDEST PUSH1 0x0 PUSH2 0x2061 PUSH1 0x2E DUP4 PUSH2 0x1755 JUMP JUMPDEST SWAP2 POP PUSH2 0x206C DUP3 PUSH2 0x2005 JUMP JUMPDEST PUSH1 0x40 DUP3 ADD SWAP1 POP SWAP2 SWAP1 POP JUMP JUMPDEST PUSH1 0x0 PUSH1 0x20 DUP3 ADD SWAP1 POP DUP2 DUP2 SUB PUSH1 0x0 DUP4 ADD MSTORE PUSH2 0x2090 DUP2 PUSH2 0x2054 JUMP JUMPDEST SWAP1 POP SWAP2 SWAP1 POP JUMP JUMPDEST PUSH32 0x455243313135353A206163636F756E747320616E6420696473206C656E677468 PUSH1 0x0 DUP3 ADD MSTORE PUSH32 0x206D69736D617463680000000000000000000000000000000000000000000000 PUSH1 0x20 DUP3 ADD MSTORE POP JUMP JUMPDEST PUSH1 0x0 PUSH2 0x20F3 PUSH1 0x29 DUP4 PUSH2 0x1755 JUMP JUMPDEST SWAP2 POP PUSH2 0x20FE DUP3 PUSH2 0x2097 JUMP JUMPDEST PUSH1 0x40 DUP3 ADD SWAP1 POP SWAP2 SWAP1 POP JUMP JUMPDEST PUSH1 0x0 PUSH1 0x20 DUP3 ADD SWAP1 POP DUP2 DUP2 SUB PUSH1 0x0 DUP4 ADD MSTORE PUSH2 0x2122 DUP2 PUSH2 0x20E6 JUMP JUMPDEST SWAP1 POP SWAP2 SWAP1 POP JUMP JUMPDEST PUSH32 0x4E487B7100000000000000000000000000000000000000000000000000000000 PUSH1 0x0 MSTORE PUSH1 0x32 PUSH1 0x4 MSTORE PUSH1 0x24 PUSH1 0x0 REVERT JUMPDEST PUSH32 0x4E487B7100000000000000000000000000000000000000000000000000000000 PUSH1 0x0 MSTORE PUSH1 0x11 PUSH1 0x4 MSTORE PUSH1 0x24 PUSH1 0x0 REVERT JUMPDEST PUSH1 0x0 PUSH2 0x2192 DUP3 PUSH2 0x15C2 JUMP JUMPDEST SWAP2 POP PUSH32 0xFFFFFFFFFFFFFFFFFFFFFFFFFFFFFFFFFFFFFFFFFFFFFFFFFFFFFFFFFFFFFFFF DUP3 SUB PUSH2 0x21C4 JUMPI PUSH2 0x21C3 PUSH2 0x2158 JUMP JUMPDEST JUMPDEST PUSH1 0x1 DUP3 ADD SWAP1 POP SWAP2 SWAP1 POP JUMP JUMPDEST PUSH32 0x4E487B7100000000000000000000000000000000000000000000000000000000 PUSH1 0x0 MSTORE PUSH1 0x12 PUSH1 0x4 MSTORE PUSH1 0x24 PUSH1 0x0 REVERT JUMPDEST PUSH32 0x455243313135353A2069647320616E6420616D6F756E7473206C656E67746820 PUSH1 0x0 DUP3 ADD MSTORE PUSH32 0x6D69736D61746368000000000000000000000000000000000000000000000000 PUSH1 0x20 DUP3 ADD MSTORE POP JUMP JUMPDEST PUSH1 0x0 PUSH2 0x225A PUSH1 0x28 DUP4 PUSH2 0x1755 JUMP JUMPDEST SWAP2 POP PUSH2 0x2265 DUP3 PUSH2 0x21FE JUMP JUMPDEST PUSH1 0x40 DUP3 ADD SWAP1 POP SWAP2 SWAP1 POP JUMP JUMPDEST PUSH1 0x0 PUSH1 0x20 DUP3 ADD SWAP1 POP DUP2 DUP2 SUB PUSH1 0x0 DUP4 ADD MSTORE PUSH2 0x2289 DUP2 PUSH2 0x224D JUMP JUMPDEST SWAP1 POP SWAP2 SWAP1 POP JUMP JUMPDEST PUSH32 0x455243313135353A207472616E7366657220746F20746865207A65726F206164 PUSH1 0x0 DUP3 ADD MSTORE PUSH32 0x6472657373000000000000000000000000000000000000000000000000000000 PUSH1 0x20 DUP3 ADD MSTORE POP JUMP JUMPDEST PUSH1 0x0 PUSH2 0x22EC PUSH1 0x25 DUP4 PUSH2 0x1755 JUMP JUMPDEST SWAP2 POP PUSH2 0x22F7 DUP3 PUSH2 0x2290 JUMP JUMPDEST PUSH1 0x40 DUP3 ADD SWAP1 POP SWAP2 SWAP1 POP JUMP JUMPDEST PUSH1 0x0 PUSH1 0x20 DUP3 ADD SWAP1 POP DUP2 DUP2 SUB PUSH1 0x0 DUP4 ADD MSTORE PUSH2 0x231B DUP2 PUSH2 0x22DF JUMP JUMPDEST SWAP1 POP SWAP2 SWAP1 POP JUMP JUMPDEST PUSH32 0x455243313135353A20696E73756666696369656E742062616C616E636520666F PUSH1 0x0 DUP3 ADD MSTORE PUSH32 0x72207472616E7366657200000000000000000000000000000000000000000000 PUSH1 0x20 DUP3 ADD MSTORE POP JUMP JUMPDEST PUSH1 0x0 PUSH2 0x237E PUSH1 0x2A DUP4 PUSH2 0x1755 JUMP JUMPDEST SWAP2 POP PUSH2 0x2389 DUP3 PUSH2 0x2322 JUMP JUMPDEST PUSH1 0x40 DUP3 ADD SWAP1 POP SWAP2 SWAP1 POP JUMP JUMPDEST PUSH1 0x0 PUSH1 0x20 DUP3 ADD SWAP1 POP DUP2 DUP2 SUB PUSH1 0x0 DUP4 ADD MSTORE PUSH2 0x23AD DUP2 PUSH2 0x2371 JUMP JUMPDEST SWAP1 POP SWAP2 SWAP1 POP JUMP JUMPDEST PUSH1 0x0 PUSH2 0x23BF DUP3 PUSH2 0x15C2 JUMP JUMPDEST SWAP2 POP PUSH2 0x23CA DUP4 PUSH2 0x15C2 JUMP JUMPDEST SWAP3 POP DUP3 DUP3 ADD SWAP1 POP DUP1 DUP3 GT ISZERO PUSH2 0x23E2 JUMPI PUSH2 0x23E1 PUSH2 0x2158 JUMP JUMPDEST JUMPDEST SWAP3 SWAP2 POP POP JUMP JUMPDEST PUSH1 0x0 PUSH1 0x40 DUP3 ADD SWAP1 POP DUP2 DUP2 SUB PUSH1 0x0 DUP4 ADD MSTORE PUSH2 0x2402 DUP2 DUP6 PUSH2 0x1C63 JUMP JUMPDEST SWAP1 POP DUP2 DUP2 SUB PUSH1 0x20 DUP4 ADD MSTORE PUSH2 0x2416 DUP2 DUP5 PUSH2 0x1C63 JUMP JUMPDEST SWAP1 POP SWAP4 SWAP3 POP POP POP JUMP JUMPDEST PUSH32 0x455243313135353A2073657474696E6720617070726F76616C20737461747573 PUSH1 0x0 DUP3 ADD MSTORE PUSH32 0x20666F722073656C660000000000000000000000000000000000000000000000 PUSH1 0x20 DUP3 ADD MSTORE POP JUMP JUMPDEST PUSH1 0x0 PUSH2 0x247B PUSH1 0x29 DUP4 PUSH2 0x1755 JUMP JUMPDEST SWAP2 POP PUSH2 0x2486 DUP3 PUSH2 0x241F JUMP JUMPDEST PUSH1 0x40 DUP3 ADD SWAP1 POP SWAP2 SWAP1 POP JUMP JUMPDEST PUSH1 0x0 PUSH1 0x20 DUP3 ADD SWAP1 POP DUP2 DUP2 SUB PUSH1 0x0 DUP4 ADD MSTORE PUSH2 0x24AA DUP2 PUSH2 0x246E JUMP JUMPDEST SWAP1 POP SWAP2 SWAP1 POP JUMP JUMPDEST PUSH1 0x0 PUSH1 0x40 DUP3 ADD SWAP1 POP PUSH2 0x24C6 PUSH1 0x0 DUP4 ADD DUP6 PUSH2 0x1638 JUMP JUMPDEST PUSH2 0x24D3 PUSH1 0x20 DUP4 ADD DUP5 PUSH2 0x1638 JUMP JUMPDEST SWAP4 SWAP3 POP POP POP JUMP JUMPDEST PUSH2 0x24E3 DUP2 PUSH2 0x1584 JUMP JUMPDEST DUP3 MSTORE POP POP JUMP JUMPDEST PUSH1 0x0 DUP2 MLOAD SWAP1 POP SWAP2 SWAP1 POP JUMP JUMPDEST PUSH1 0x0 DUP3 DUP3 MSTORE PUSH1 0x20 DUP3 ADD SWAP1 POP SWAP3 SWAP2 POP POP JUMP JUMPDEST PUSH1 0x0 PUSH2 0x2510 DUP3 PUSH2 0x24E9 JUMP JUMPDEST PUSH2 0x251A DUP2 DUP6 PUSH2 0x24F4 JUMP JUMPDEST SWAP4 POP PUSH2 0x252A DUP2 DUP6 PUSH1 0x20 DUP7 ADD PUSH2 0x1766 JUMP JUMPDEST PUSH2 0x2533 DUP2 PUSH2 0x1790 JUMP JUMPDEST DUP5 ADD SWAP2 POP POP SWAP3 SWAP2 POP POP JUMP JUMPDEST PUSH1 0x0 PUSH1 0xA0 DUP3 ADD SWAP1 POP PUSH2 0x2553 PUSH1 0x0 DUP4 ADD DUP9 PUSH2 0x24DA JUMP JUMPDEST PUSH2 0x2560 PUSH1 0x20 DUP4 ADD DUP8 PUSH2 0x24DA JUMP JUMPDEST DUP2 DUP2 SUB PUSH1 0x40 DUP4 ADD MSTORE PUSH2 0x2572 DUP2 DUP7 PUSH2 0x1C63 JUMP JUMPDEST SWAP1 POP DUP2 DUP2 SUB PUSH1 0x60 DUP4 ADD MSTORE PUSH2 0x2586 DUP2 DUP6 PUSH2 0x1C63 JUMP JUMPDEST SWAP1 POP DUP2 DUP2 SUB PUSH1 0x80 DUP4 ADD MSTORE PUSH2 0x259A DUP2 DUP5 PUSH2 0x2505 JUMP JUMPDEST SWAP1 POP SWAP7 SWAP6 POP POP POP POP POP POP JUMP JUMPDEST PUSH1 0x0 DUP2 MLOAD SWAP1 POP PUSH2 0x25B5 DUP2 PUSH2 0x168E JUMP JUMPDEST SWAP3 SWAP2 POP POP JUMP JUMPDEST PUSH1 0x0 PUSH1 0x20 DUP3 DUP5 SUB SLT ISZERO PUSH2 0x25D1 JUMPI PUSH2 0x25D0 PUSH2 0x155A JUMP JUMPDEST JUMPDEST PUSH1 0x0 PUSH2 0x25DF DUP5 DUP3 DUP6 ADD PUSH2 0x25A6 JUMP JUMPDEST SWAP2 POP POP SWAP3 SWAP2 POP POP JUMP JUMPDEST PUSH1 0x0 DUP2 PUSH1 0xE0 SHR SWAP1 POP SWAP2 SWAP1 POP JUMP JUMPDEST PUSH1 0x0 PUSH1 0x3 RETURNDATASIZE GT ISZERO PUSH2 0x2614 JUMPI PUSH1 0x4 PUSH1 0x0 DUP1 RETURNDATACOPY PUSH2 0x2611 PUSH1 0x0 MLOAD PUSH2 0x25E8 JUMP JUMPDEST SWAP1 POP JUMPDEST SWAP1 JUMP JUMPDEST PUSH1 0x0 PUSH1 0x44 RETURNDATASIZE LT PUSH2 0x26A4 JUMPI PUSH2 0x2629 PUSH2 0x1550 JUMP JUMPDEST PUSH1 0x4 RETURNDATASIZE SUB PUSH1 0x4 DUP3 RETURNDATACOPY DUP1 MLOAD RETURNDATASIZE PUSH1 0x24 DUP3 ADD GT PUSH8 0xFFFFFFFFFFFFFFFF DUP3 GT OR ISZERO PUSH2 0x2651 JUMPI POP POP PUSH2 0x26A4 JUMP JUMPDEST DUP1 DUP3 ADD DUP1 MLOAD PUSH8 0xFFFFFFFFFFFFFFFF DUP2 GT ISZERO PUSH2 0x266F JUMPI POP POP POP POP PUSH2 0x26A4 JUMP JUMPDEST DUP1 PUSH1 0x20 DUP4 ADD ADD PUSH1 0x4 RETURNDATASIZE SUB DUP6 ADD DUP2 GT ISZERO PUSH2 0x268C JUMPI POP POP POP POP POP PUSH2 0x26A4 JUMP JUMPDEST PUSH2 0x269B DUP3 PUSH1 0x20 ADD DUP6 ADD DUP7 PUSH2 0x1830 JUMP JUMPDEST DUP3 SWAP6 POP POP POP POP POP POP JUMPDEST SWAP1 JUMP JUMPDEST PUSH32 0x455243313135353A207472616E7366657220746F206E6F6E2D45524331313535 PUSH1 0x0 DUP3 ADD MSTORE PUSH32 0x526563656976657220696D706C656D656E746572000000000000000000000000 PUSH1 0x20 DUP3 ADD MSTORE POP JUMP JUMPDEST PUSH1 0x0 PUSH2 0x2703 PUSH1 0x34 DUP4 PUSH2 0x1755 JUMP JUMPDEST SWAP2 POP PUSH2 0x270E DUP3 PUSH2 0x26A7 JUMP JUMPDEST PUSH1 0x40 DUP3 ADD SWAP1 POP SWAP2 SWAP1 POP JUMP JUMPDEST PUSH1 0x0 PUSH1 0x20 DUP3 ADD SWAP1 POP DUP2 DUP2 SUB PUSH1 0x0 DUP4 ADD MSTORE PUSH2 0x2732 DUP2 PUSH2 0x26F6 JUMP JUMPDEST SWAP1 POP SWAP2 SWAP1 POP JUMP JUMPDEST PUSH32 0x455243313135353A204552433131353552656365697665722072656A65637465 PUSH1 0x0 DUP3 ADD MSTORE PUSH32 0x6420746F6B656E73000000000000000000000000000000000000000000000000 PUSH1 0x20 DUP3 ADD MSTORE POP JUMP JUMPDEST PUSH1 0x0 PUSH2 0x2795 PUSH1 0x28 DUP4 PUSH2 0x1755 JUMP JUMPDEST SWAP2 POP PUSH2 0x27A0 DUP3 PUSH2 0x2739 JUMP JUMPDEST PUSH1 0x40 DUP3 ADD SWAP1 POP SWAP2 SWAP1 POP JUMP JUMPDEST PUSH1 0x0 PUSH1 0x20 DUP3 ADD SWAP1 POP DUP2 DUP2 SUB PUSH1 0x0 DUP4 ADD MSTORE PUSH2 0x27C4 DUP2 PUSH2 0x2788 JUMP JUMPDEST SWAP1 POP SWAP2 SWAP1 POP JUMP JUMPDEST PUSH1 0x0 PUSH1 0xA0 DUP3 ADD SWAP1 POP PUSH2 0x27E0 PUSH1 0x0 DUP4 ADD DUP9 PUSH2 0x24DA JUMP JUMPDEST PUSH2 0x27ED PUSH1 0x20 DUP4 ADD DUP8 PUSH2 0x24DA JUMP JUMPDEST PUSH2 0x27FA PUSH1 0x40 DUP4 ADD DUP7 PUSH2 0x1638 JUMP JUMPDEST PUSH2 0x2807 PUSH1 0x60 DUP4 ADD DUP6 PUSH2 0x1638 JUMP JUMPDEST DUP2 DUP2 SUB PUSH1 0x80 DUP4 ADD MSTORE PUSH2 0x2819 DUP2 DUP5 PUSH2 0x2505 JUMP JUMPDEST SWAP1 POP SWAP7 SWAP6 POP POP POP POP POP POP JUMP INVALID LOG2 PUSH5 0x6970667358 0x22 SLT KECCAK256 DELEGATECALL 0x2A LOG1 ADDRESS SWAP10 JUMPDEST KECCAK256 CREATE PUSH4 0x48B897C4 PUSH15 0x91DE6F91028A4842A0F48F986F623F LOG3 0xA9 RETURNDATASIZE PUSH5 0x736F6C6343 STOP ADDMOD SLT STOP CALLER PUSH9 0x747470733A2F2F6970 PUSH7 0x732E696F2F6970 PUSH7 0x732F6261667962 PUSH6 0x69686A6A6B77 PUSH5 0x7278786A6E PUSH22 0x7765766C7174716D683369656763616463333273696F CALLVALUE PUSH24 0x6D6F37627632676266333471733334612F7B69647D2E6A73 PUSH16 0x6E000000000000000000000000000000 "
		},
		"gasEstimates": {
			"creation": {
				"codeDepositCost": "2066200",
				"executionCost": "infinite",
				"totalCost": "infinite"
			},
			"external": {
				"BackCover()": "373",
				"KU()": "351",
				"Wallpaper()": "418",
				"balanceOf(address,uint256)": "infinite",
				"balanceOfBatch(address[],uint256[])": "infinite",
				"isApprovedForAll(address,address)": "infinite",
				"safeBatchTransferFrom(address,address,uint256[],uint256[],bytes)": "infinite",
				"safeTransferFrom(address,address,uint256,uint256,bytes)": "infinite",
				"setApprovalForAll(address,bool)": "infinite",
				"supportsInterface(bytes4)": "796",
				"uri(uint256)": "infinite"
			}
		},
		"methodIdentifiers": {
			"BackCover()": "89479c50",
			"KU()": "671747fd",
			"Wallpaper()": "3c855b87",
			"balanceOf(address,uint256)": "00fdd58e",
			"balanceOfBatch(address[],uint256[])": "4e1273f4",
			"isApprovedForAll(address,address)": "e985e9c5",
			"safeBatchTransferFrom(address,address,uint256[],uint256[],bytes)": "2eb2c2d6",
			"safeTransferFrom(address,address,uint256,uint256,bytes)": "f242432a",
			"setApprovalForAll(address,bool)": "a22cb465",
			"supportsInterface(bytes4)": "01ffc9a7",
			"uri(uint256)": "0e89341c"
		}
	},
	"abi": [
		{
			"inputs": [],
			"stateMutability": "nonpayable",
			"type": "constructor"
		},
		{
			"anonymous": false,
			"inputs": [
				{
					"indexed": true,
					"internalType": "address",
					"name": "account",
					"type": "address"
				},
				{
					"indexed": true,
					"internalType": "address",
					"name": "operator",
					"type": "address"
				},
				{
					"indexed": false,
					"internalType": "bool",
					"name": "approved",
					"type": "bool"
				}
			],
			"name": "ApprovalForAll",
			"type": "event"
		},
		{
			"anonymous": false,
			"inputs": [
				{
					"indexed": true,
					"internalType": "address",
					"name": "operator",
					"type": "address"
				},
				{
					"indexed": true,
					"internalType": "address",
					"name": "from",
					"type": "address"
				},
				{
					"indexed": true,
					"internalType": "address",
					"name": "to",
					"type": "address"
				},
				{
					"indexed": false,
					"internalType": "uint256[]",
					"name": "ids",
					"type": "uint256[]"
				},
				{
					"indexed": false,
					"internalType": "uint256[]",
					"name": "values",
					"type": "uint256[]"
				}
			],
			"name": "TransferBatch",
			"type": "event"
		},
		{
			"anonymous": false,
			"inputs": [
				{
					"indexed": true,
					"internalType": "address",
					"name": "operator",
					"type": "address"
				},
				{
					"indexed": true,
					"internalType": "address",
					"name": "from",
					"type": "address"
				},
				{
					"indexed": true,
					"internalType": "address",
					"name": "to",
					"type": "address"
				},
				{
					"indexed": false,
					"internalType": "uint256",
					"name": "id",
					"type": "uint256"
				},
				{
					"indexed": false,
					"internalType": "uint256",
					"name": "value",
					"type": "uint256"
				}
			],
			"name": "TransferSingle",
			"type": "event"
		},
		{
			"anonymous": false,
			"inputs": [
				{
					"indexed": false,
					"internalType": "string",
					"name": "value",
					"type": "string"
				},
				{
					"indexed": true,
					"internalType": "uint256",
					"name": "id",
					"type": "uint256"
				}
			],
			"name": "URI",
			"type": "event"
		},
		{
			"inputs": [],
			"name": "BackCover",
			"outputs": [
				{
					"internalType": "uint256",
					"name": "",
					"type": "uint256"
				}
			],
			"stateMutability": "view",
			"type": "function"
		},
		{
			"inputs": [],
			"name": "KU",
			"outputs": [
				{
					"internalType": "uint256",
					"name": "",
					"type": "uint256"
				}
			],
			"stateMutability": "view",
			"type": "function"
		},
		{
			"inputs": [],
			"name": "Wallpaper",
			"outputs": [
				{
					"internalType": "uint256",
					"name": "",
					"type": "uint256"
				}
			],
			"stateMutability": "view",
			"type": "function"
		},
		{
			"inputs": [
				{
					"internalType": "address",
					"name": "account",
					"type": "address"
				},
				{
					"internalType": "uint256",
					"name": "id",
					"type": "uint256"
				}
			],
			"name": "balanceOf",
			"outputs": [
				{
					"internalType": "uint256",
					"name": "",
					"type": "uint256"
				}
			],
			"stateMutability": "view",
			"type": "function"
		},
		{
			"inputs": [
				{
					"internalType": "address[]",
					"name": "accounts",
					"type": "address[]"
				},
				{
					"internalType": "uint256[]",
					"name": "ids",
					"type": "uint256[]"
				}
			],
			"name": "balanceOfBatch",
			"outputs": [
				{
					"internalType": "uint256[]",
					"name": "",
					"type": "uint256[]"
				}
			],
			"stateMutability": "view",
			"type": "function"
		},
		{
			"inputs": [
				{
					"internalType": "address",
					"name": "account",
					"type": "address"
				},
				{
					"internalType": "address",
					"name": "operator",
					"type": "address"
				}
			],
			"name": "isApprovedForAll",
			"outputs": [
				{
					"internalType": "bool",
					"name": "",
					"type": "bool"
				}
			],
			"stateMutability": "view",
			"type": "function"
		},
		{
			"inputs": [
				{
					"internalType": "address",
					"name": "from",
					"type": "address"
				},
				{
					"internalType": "address",
					"name": "to",
					"type": "address"
				},
				{
					"internalType": "uint256[]",
					"name": "ids",
					"type": "uint256[]"
				},
				{
					"internalType": "uint256[]",
					"name": "amounts",
					"type": "uint256[]"
				},
				{
					"internalType": "bytes",
					"name": "data",
					"type": "bytes"
				}
			],
			"name": "safeBatchTransferFrom",
			"outputs": [],
			"stateMutability": "nonpayable",
			"type": "function"
		},
		{
			"inputs": [
				{
					"internalType": "address",
					"name": "from",
					"type": "address"
				},
				{
					"internalType": "address",
					"name": "to",
					"type": "address"
				},
				{
					"internalType": "uint256",
					"name": "id",
					"type": "uint256"
				},
				{
					"internalType": "uint256",
					"name": "amount",
					"type": "uint256"
				},
				{
					"internalType": "bytes",
					"name": "data",
					"type": "bytes"
				}
			],
			"name": "safeTransferFrom",
			"outputs": [],
			"stateMutability": "nonpayable",
			"type": "function"
		},
		{
			"inputs": [
				{
					"internalType": "address",
					"name": "operator",
					"type": "address"
				},
				{
					"internalType": "bool",
					"name": "approved",
					"type": "bool"
				}
			],
			"name": "setApprovalForAll",
			"outputs": [],
			"stateMutability": "nonpayable",
			"type": "function"
		},
		{
			"inputs": [
				{
					"internalType": "bytes4",
					"name": "interfaceId",
					"type": "bytes4"
				}
			],
			"name": "supportsInterface",
			"outputs": [
				{
					"internalType": "bool",
					"name": "",
					"type": "bool"
				}
			],
			"stateMutability": "view",
			"type": "function"
		},
		{
			"inputs": [
				{
					"internalType": "uint256",
					"name": "_tokenid",
					"type": "uint256"
				}
			],
			"name": "uri",
			"outputs": [
				{
					"internalType": "string",
					"name": "",
					"type": "string"
				}
			],
			"stateMutability": "pure",
			"type": "function"
		}
	]
}